:020000040800F2
:10000000F0050020A9010008FB1F0008751D00086D
:10001000F91F000895070008E1250008000000000E
:10002000000000000000000000000000FF1F0008AA
:100030009707000800000000FD1F000801200008CD
:10004000C3010008C3010008C3010008C301000880
:10005000C3010008C3010008C3010008C301000870
:10006000C3010008C3010008C3010008C301000860
:10007000C3010008C3010008C3010008C301000850
:10008000C3010008C3010008C3010008000000000C
:10009000000000000000000000000000C301000894
:1000A000C3010008C3010008C3010008C301000820
:1000B000A9200008C3010008B5200008C3010008FA
:1000C000C3010008C3010008C3010008C301000800
:1000D000C3010008D5250008C30100080000000086
:1000E000C3010008C3010008C301000800000000AC
:1000F000000000000000000000000000C301000834
:1001000000000000C3010008C1200008C30100086E
:1001100000000000000000000000000000000000DF
:10012000C3010008C3010008C3010008C30100089F
:10013000C3010008000000000000000000000000F3
:10014000000000000000000000000000C3010008E3
:10015000C3010008C3010008C3010008C30100086F
:10016000C3010008C30100080000000000000000F7
:10017000000000000000000000000000000000007F
:1001800000000000C30100080000000000000000A3
:10019000C3010008DFF80CD000F0EAFA004800477D
:1001A000412F0008F0050020064880470648004718
:1001B000FEE7FEE7FEE7FEE7FEE7FEE7FEE7FEE717
:1001C000FEE7FEE799200008950100082DE9F05FA1
:1001D0000546002092469B468846064681464024B6
:1001E0001BE0284641464746224600F011FA534696
:1001F0005A46C01A914110D311461846224600F0C3
:10020000F8F92D1A67EB01084F462246012000211C
:1002100000F0EFF917EB00094E41201EA4F1010494
:10022000DFDC484631462A464346BDE8F09FD2B25D
:1002300001E000F8012B491EFBD270470022F6E7CF
:1002400010B513460A4604461946FFF7F0FF20464C
:1002500010BD2DE9FE4F804681EA0300C00F0C4619
:10026000009021F0004123F00045B8EB0200A941C5
:1002700005D24046214690461C460B46024623F0D6
:100280000040104347D0270DC7F30A00C3F30A51BB
:100290000290401A019040286BDAC3F3130040F437
:1002A000801B0098924620B10023D2EB030A63EB37
:1002B0000B0B01985946C0F14002504600F099F9E5
:1002C00006460D4650465946019A00F0B1F910EB2A
:1002D00008006141002487EA115284EAE7731A4357
:1002E00040D0009A62B3019A012A4FEA075215DC06
:1002F000001B61EB02014FF0004202EA0752CDE918
:100300000042001C41F5801132462B4600F0B1F945
:1003100003B0BDE8F08F40462146F9E7001B61EBD2
:100320000201001C41F5801300185B412018A2F562
:10033000001747EB030140EAD570B6196D4111E093
:100340006D084FEA360645EAC0754FEA0752001BB2
:1003500061EB0201001C41F5801149084FEA3000B1
:100360000019514132462B4603B0BDE8F04F00F072
:1003700071B90098012240000023D0EB020263EB28
:10038000E073009821464FEAE074B8EB000061EB9F
:100390000401E9E783F000435BE781F0004158E79F
:1003A0002DE9FE4F81EA030404F0004421F00041EE
:1003B00000944FF0000B23F0004350EA01045ED09C
:1003C00052EA03045BD0C3F30A54C1F30A552C4428
:1003D000A4F2F3340194A0FB0254C1F3130141F4DD
:1003E0008011C3F3130343F4801301FB024400FBA9
:1003F000034E840A970A44EA815447EA8357A4FBD0
:10040000076802958D0A05FB07854FEA932C04FBCC
:100410000C542705029D4FEA065847EA1637B5EBFC
:1004200008056EEB070C870E920E47EA811742EA29
:100430008312A7FB0201B6EB0B0164EB00042B0D4A
:1004400043EA0C335E1844EB1C50DA465146E7FB96
:100450000201C5F313044FEA0B3343EA14534FEA86
:100460000432019C43EA0603A4F10C040294009CAC
:10047000CDE900B400F0FDF803B0BDE8F08F002036
:100480000146F9E72DE9F04D81EA030404F0004B41
:1004900021F0004514464FF0000A23F0004150EAD5
:1004A000050220D054EA01021DD0C5F30A570246C6
:1004B000C5F31303C1F31300C1F30A5640F48015CA
:1004C00043F48013A7EB0608101BD64608F2FD384C
:1004D00073EB050002D308F1010801E092185B41BB
:1004E000B8F1000F03DA00200146BDE8F08D0020CE
:1004F0004FF48011064684460EE0171B73EB050788
:1005000005D3121B63EB050306434CEA010C4908B3
:100510004FEA300092185B4150EA0107EDD152EAF0
:10052000030012D082EA040083EA0501084305D0E3
:10053000101BAB4106D20122002306E000224FF03F
:10054000004302E06FF0010253101AEB06004CEB7F
:10055000085110EB0A0041EB0B01BDE8F04D00F033
:1005600079B870B5C1F30A5201F000450024C1F317
:10057000130140F2FF3341F480119A4201DA002066
:1005800070BD40F233439A42A2F2334203DC52423E
:1005900000F03EF800E090402C43F1D0404270BDA6
:1005A00000F0004230F000400AD0C10D01F560714A
:1005B000C0F3160042EA0151C208400711437047D8
:1005C00000200146704730B50B460146002020222E
:1005D000012409E021FA02F59D4205D303FA02F550
:1005E000491B04FA02F52844151EA2F10102F1DCB0
:1005F00030BD202A04DB203A00FA02F100207047C7
:100600009140C2F1200320FA03F319439040704750
:10061000202A04DB203A21FA02F00021704721FA57
:1006200002F3D040C2F120029140084319467047BE
:10063000202A06DBCB17203A41FA02F043EAE073A6
:1006400006E041FA02F3D040C2F120029140084393
:100650001946704710B5141E73F1000408DA401CE7
:1006600041F1000192185B411A4301D120F00100D1
:1006700010BD2DE9F04D92469B4611B1B1FA81F2C1
:1006800002E0B0FA80F220329046FFF7B2FF044653
:100690000F4640EA0A0041EA0B0153465A46084316
:1006A00013D0114653EA010019D0C8F14002504658
:1006B000FFF7AEFF05460E46504659464246FFF745
:1006C00098FF084305D0012004E020463946BDE8E4
:1006D000F08D0020054346EAE0762C4337430A9824
:1006E0006305E40AA0EB08000022FD0A44EA47542F
:1006F0000A3002D500200146E9E7010510196941D9
:10070000DDE9084500196941BDE8F04DA2E7C1F3F4
:100710000A52C1F3130140F2FF3341F480119A42AF
:1007200002DA00200146704740F233439A42A2F2B7
:10073000334202DC5242FFF76BBFFFF75ABF0000A3
:1007400030B5041E71F1000404DB4FF00044404258
:1007500064EB0101141E73F1000405DB1C464FF02D
:100760000043524263EB0403994208BF904230BDFC
:10077000064C074D06E0E06840F0010394E80700EE
:1007800098471034AC42F6D3FFF708FDC03100089B
:10079000E0310008FEE7704772B6FEE72DE9F04150
:1007A0000446876D00F046F9064694F835000025AA
:1007B000022806D08020606584F834500120BDE80E
:1007C000F0812068016821F016010160206841690C
:1007D00021F080014161206C08B9A06C20B1206833
:1007E000016821F0080101602068016821F0010121
:1007F00001600CE000F01EF9801B052807D92020BD
:100800006065032084F8350084F83450D7E7206809
:100810000068C007EED194F85C103F208840B860B3
:10082000012084F8350084F834500020C7E790F8A0
:100830003510022903D08021416501207047052130
:1008400080F835100068016821F001010160002086
:10085000704700002DE9F84FDFF8B8A1002201240D
:1008600003254FF00F090AF1040BAAF1040E00BF93
:100870000B6804FA02F63340B34273D10F7907F0E4
:100880000307012F01D0022F16D187684FEA4208D3
:1008900005FA08FC27EA0C07D1F80CC00CFA08FC92
:1008A0004CEA070CC0F808C04768B7430E79C6F396
:1008B000001696403E4346600E79F643B6070DD0CB
:1008C000C768560005FA06FC27EA0C07D1F808C0ED
:1008D0000CFA06FC4CEA070CC0F80CC00E7906F0C6
:1008E0000306022E10D1D60800EB8608D8F8206047
:1008F00057074FEAD76C09FA0CF7BE430F6907FA9E
:100900000CF73743C8F8207006684FEA420C05FA26
:100910000CF7BE430F7907F0030707FA0CF73743CC
:1009200007604E6816F4403F6DD03B4E376847F481
:1009300080473760366822F0030706F48046009649
:10094000364E07EB060CDCF8086897073F0F09FAEC
:1009500007F826EA0806DFF8C880404503D14FF0C3
:1009600000081EE04FE0DFF8BC80404502D14FF0A8
:10097000010816E0DFF8B080404502D14FF00208D0
:100980000FE0DFF8A880404502D14FF0030808E0EF
:10099000DFF89C80404502D14FF0040801E04FF0A1
:1009A000070808FA07F848EA0608CCF80888DAF8D1
:1009B00000605746D1F804C09E435FEACC2C00D5B6
:1009C0001E433E60DBF800605F46D1F804C09E43E2
:1009D0005FEA8C2C00D51E433E60DEF8006077464F
:1009E000D1F804C09E435FEA8C3C00D51E433E60B4
:1009F000084F083F3E68D1F804C09E435FEACC3CF4
:100A000000D51E433E60521C102AFFF431AFBDE8F2
:100A1000F88F0000083C014044380240003001409B
:100A2000000002400004024000080240000C0240A6
:100A3000001002400148806870470000000000205C
:100A400002488168027811448160704700000020EC
:100A50000B4810B5016841F400710160016841F470
:100A600080610160016841F480710160032000F041
:100A70006FF80F2000F006F800F024F8002010BDF9
:100A8000003C024070B50D4D04464FF47A71287851
:100A9000B1FBF0F00A490968B1FBF0F000F00CFB83
:100AA00048B9102C07D200222146501E00F030F821
:100AB00000206C6070BD012070BD000000000020AF
:100AC0000C0000200A4808B5016841F4804101602B
:100AD000006800F4804000900548001F016841F064
:100AE00080510160006800F08050009008BD000057
:100AF00044380240002809DB00F01F020121914028
:100B00004009800000F1E020C0F8001170470000AB
:100B1000F0B40E4B1B680C46C3F30223C3F1070568
:100B2000042D00D90425191D072901D2002300E056
:100B3000DB1E012606FA05F1491E214099409E4020
:100B4000761E16403143F0BC01F05CBD0CED00E0B8
:100B5000064900F0070208684FF6FF03184040EA14
:100B60000220034A10430860704700000CED00E0CB
:100B70000000FA052DE9F0470E46050065D0DFF8C4
:100B80001481D8F80000F7B200F00700B04207D295
:100B900088F80070D8F8000000F00700B04254D187
:100BA00028683D4C810712D5400703D5206840F4E2
:100BB000E05020602878000703D5206840F46040AA
:100BC00020602068A96820F0F000084320602878A1
:100BD000C0072DD0304968680839012812D0022892
:100BE00013D0032811D00968890700292DDA21685C
:100BF00021F0030101432160FFF71CFF814641F210
:100C0000883A0EE009688903EFE709688901ECE793
:100C1000FFF710FFA0EB0901514502D90320BDE801
:100C2000F0872068696800F00C00B0EB810FEFD10D
:100C3000D8F80010404601F00701B14207D907700B
:100C4000006800F00700B04201D00120E7E72878F3
:100C5000400705D52068E96820F4E050084320608B
:100C60002878000706D52068296920F4604040EA0A
:100C7000C100206000F038F82168084AC1F3031170
:100C8000515CC8400649086006480068FFF7FAFE54
:100C90000020C4E7003C024008380240A8310008A8
:100CA0000C00002004000020044805490068096881
:100CB000044AC1F38221515CC84070470C000020F7
:100CC00008380240B831000804480549006809683E
:100CD000044AC1F34231515CC84070470C00002007
:100CE00008380240B8310008154810B5006810F007
:100CF0000C02144813D01449042A0FD0082A0ED12C
:100D00000F4C241F2268236802F03F025B0207D5C4
:100D10002068C0F38810A0FB010106E0084610BD62
:100D20002168C1F38811A1FB00010023FFF74EFAEF
:100D30002168C1F30141491C4900B0FBF1F010BD2D
:100D4000083802400024F40040787D012DE9F84F76
:100D500004006ED02078DFF84C93C007A9F1040599
:100D60004AD009F104000168C1F38101012908D0CA
:100D70000068C0F3810002280AD1D9F800004002BF
:100D800006D52868800337D560680028E1D033E0B5
:100D90006068B0F5803F10D0B0F5A02F286810D063
:100DA00020F480302860286820F480202860606863
:100DB000A8B1FFF73FFE06460DE0286840F48030FA
:100DC000F4E740F480202860F7E700BFFFF732FE29
:100DD000801B642873D828688003F7D50CE0FFF7E0
:100DE00029FE064605E000BFFFF724FE801B6428AD
:100DF000F0D828688003F7D42078DFF8AC82800729
:100E00004FF0000A3ED5A748001D016811F00C0FF5
:100E100008D00068C0F3810002280BD1D9F8000087
:100E2000400207D42868800716D5E068012800D161
:100E300012E033E1E068B8B10120C8F80000FFF724
:100E4000F9FD064605E000BFFFF7F4FD801B022810
:100E5000C0D828688007F7D52868216920F0F800F5
:100E600040EAC10028600DE0C8F800A0FFF7E2FDED
:100E7000064604E0FFF7DEFD801B02281FD8286825
:100E80008007F7D42078000722D5864F874861690C
:100E9000703771B101210160FFF7CCFD064604E017
:100EA000FFF7C8FD801B022809D838688007F7D5EE
:100EB0000EE0C0F800A0FFF7BDFD064605E082E0A9
:100EC000FFF7B8FD801B02287DD838688007F7D46B
:100ED0002078400768D5DFF8CCB100270BF13C0B38
:100EE000DBF80000C0000BD4DBF8001041F08051AB
:100EF000CBF80010DBF80000012700F080500090D4
:100F00006B4E3068C00510D4306840F4807030609B
:100F1000FFF790FD009005E0FFF78CFD0099401A67
:100F2000022850D83068C005F6D55E4EA0686C36F1
:100F300001280FD00528306810D020F00100306063
:100F4000306820F004003060A068B8B1FFF772FD8F
:100F500000900FE0306840F00100F4E740F004003A
:100F60003060F7E7FFF766FD0099411A41F28830DB
:100F7000814266D830688007F4D50EE0FFF75AFD4D
:100F8000009007E0FFF756FD0099411A41F28830C2
:100F9000814256D830688007F4D42FB1DBF80010B6
:100FA00021F08051CBF80010A069C8B33D49091D5C
:100FB0000968C1F3810102294AD00228504607D0AE
:100FC000C8F8600000E03CE0FFF734FD04463BE079
:100FD0004746C8F86000FFF72DFD064605E000BF54
:100FE000FFF728FD801B02282BD828688001F7D442
:100FF000D4E907010843A16A2E4A490802EB0141DE
:10100000626A41EA8211084394F82C1040EA0161B7
:10101000C9F8001001203866FFF70CFD044606E011
:101020003EE000BFFFF706FD001B022809D8286834
:101030008001F7D534E000BFFFF7FCFC001B02285D
:1010400002D90320BDE8F88F28688001F4D427E096
:101050000128F7D0D9F80000E26900F4800191423C
:101060001CD1226A00F03F01914217D147F6C071AE
:10107000626A0140B1EB821F10D1A26A4FF0FF33C8
:1010800000F4403103EB5202B1EB024F06D194F869
:101090002C1000F07060B0EB016F01D00120D1E79F
:1010A0000020CFE70438024000004742800E47424C
:1010B000007000400000FFFF10B5401EB0F1807FBF
:1010C00001D3012010BD4FF0E02460610F216017B3
:1010D00001F098FA0020A06107202061002010BDD7
:1010E0007047704770B590F83C20012A2CD001243D
:1010F00080F83C40022280F83D2003685A689D68D1
:1011000022F070060A6832435A60104B02689A4215
:101110000ED0B2F1804F0BD00D4B9A4208D00D4B40
:101120009A4205D00C4B9A4202D00C4B9A4204D101
:10113000496825F080031943916080F83D40002103
:1011400080F83C10084670BD022070BD00000140D0
:101150000004004000080040000C00400040014036
:1011600010B5040003D094F83D0010B107E0012051
:1011700010BD002084F83C00204600F01FF802203B
:1011800084F83D00211D206800F0A0FF012084F8B4
:10119000460084F83E0084F83F0084F8400084F85C
:1011A000410084F8420084F8430084F8440084F845
:1011B000450084F83D00002010BD000008B5114A2C
:1011C00001681148914208D1016841F002010160B3
:1011D000006800F00200009008BD0C4A9142FBD16B
:1011E000016841F0040101600068002200F0040081
:1011F000009011461E20FFF78BFCBDE808401E2022
:10120000FFF778BC0004004040380240000800406E
:1012100090F83D10012901D001207047022180F88B
:101220003D100168CA6842F00102CA6000680E49B8
:1012300088420ED0B0F1804F0BD00C49884208D0C4
:101240000B49884205D00B49884202D00A4988429E
:1012500004D1816801F00701062903D0016841F03B
:1012600001010160002070470000014000040040BF
:1012700000080040000C00400040014070B50446EA
:1012800090F83C000025012817D0012684F83C6026
:10129000022084F83D002068826822F0770222F460
:1012A0007F4282600868502838D00DDC20284FD05B
:1012B00005DC90B3102811D14AE0022070BD30281F
:1012C00046D040280AD13BE060282FD070280DD0AE
:1012D000B0F5805F03D0B0F5005F12D0012584F82F
:1012E0003D60002084F83C00284670BDCB68D1E901
:1012F0000121206800F047FF2068816841F07701F4
:1013000009E0CB68D1E90121206800F03CFF2068AA
:10131000816841F480418160E1E719E0CA68496869
:10132000206800F0E5FF5021206806E0CA6849689F
:10133000206800F0EEFF6021206800F02EFFCEE76D
:10134000CA684968206800F0D3FF40212068F4E7AC
:10135000226801461046F0E72DE9F0410D460400F1
:1013600003D094F83D0018B108E00120BDE8F081F9
:10137000002084F83C00204600F040F8022084F869
:101380003D002068816844F2070291438160211D7D
:10139000206800F09BFE226890689169166A2B68AD
:1013A000AF69034340F20330814341EA0721A86853
:1013B000EF6908434FF6FC418843E96840EA07209B
:1013C000014328692F6A000140EA07300843696831
:1013D0006D6926F0AA0646EA05152943936022683E
:1013E000906154F8460B0162012004F81F09E07572
:1013F0002076E0762077A0750020B7E770B586B03C
:10140000044614216846FEF719FF32492368002478
:10141000304A103902253048B3F1804F26D02F4E84
:10142000B34221D1136843F008031360126802F03D
:10143000080205920A6842F001020A60096801F098
:101440000101059103210091CDE901546946CDE9DF
:101450000345FFF7FFF9002211463220FFF758FB42
:101460005FF03200FFF746FB06B070BD136843F033
:1014700001031360126802F0010205920A6842F04B
:1014800001020A600A6802F0010205920A6842F04D
:1014900002020A600968012601F00201059120217B
:1014A0000091CDE90154CDE903466946FFF7D2F931
:1014B00008200090CDE90154CDE90346694608486B
:1014C000FFF7C8F9002211461C20FFF721FB1C2062
:1014D000C8E700004038024000000240000C004015
:1014E0000004024070B590F83E60044690F83F500A
:1014F00090F8423090F84320022021B104290ED008
:10150000012E1BD114E0012E18D1012B16D184F825
:101510003E0084F8420001220021206820E0012DD5
:101520000CD1012A0AD184F83F0084F8430014E06A
:10153000012D03D1012B01D1012A01D0012070BD61
:1015400084F83E0084F83F0084F8420084F84300A9
:1015500001220021206800F009FE012204212068F8
:1015600000F004FE2068016841F0010101600020E4
:1015700070BD70472DE9F04104460068C6680569F2
:101580004FF00007A90713D5B10711D5F91E016166
:1015900001202077206880698007204602D0FFF76D
:1015A000E8FF04E000F0BAF8204600F04CF9277795
:1015B000680716D5700714D521686FF0040008611C
:1015C000022020772068806910F4407F204602D0F6
:1015D000FFF7CFFF04E000F0A1F8204600F033F958
:1015E0002777280715D5300713D521686FF0080035
:1015F0000861042020772068C0698007204602D057
:10160000FFF7B7FF04E000F089F8204600F01BF96F
:101610002777E80616D5F00614D521686FF010007C
:101620000861082020772068C06910F4407F2046B8
:1016300002D0FFF79EFF04E000F070F8204600F0B3
:1016400002F92777E80708D0F00706D021686FF085
:1016500001000861204600F04FF9280608D5300641
:1016600006D521686FF0800008612046FFF738FD3D
:10167000680608D5700606D521686FF0400008613D
:10168000204600F071F9A8060AD5B00608D52168F1
:101690006FF0200008612046BDE8F041FFF721BD52
:1016A000BDE8F08130B587B0044614216846FEF7E6
:1016B000C5FD16492068884226D1154800240168D6
:1016C00041F001010160016801F00101059101682B
:1016D00041F0020101600068022500F0020005905F
:1016E000C0200090CDE9015469460A48CDE9034580
:1016F000FFF7B0F803200090CDE901546946064891
:10170000CDE90345FFF7A6F807B030BD000400405F
:10171000303802400000024000040240704770B5BB
:10172000044690F83C0000260D4601280FD0012009
:1017300084F83C006AB1042A1DD0082A2FD00C2A54
:101740003FD00126002084F83C00304670BD0220C6
:1017500070BD206800F02AFD2068816941F0080111
:1017600081612068816921F00401816120688169BB
:101770002A69114311E0206800F040FD206881696A
:1017800041F4006181612068816921F48061816197
:10179000206881692A6941EA02218161D2E72068D3
:1017A00000F058FD2068C16941F00801C16120685E
:1017B000C16921F00401C1612068C1692A6911432E
:1017C00011E0206800F072FD2068C16941F40061F9
:1017D000C1612068C16921F48061C1612068C1696B
:1017E0002A6941EA0221C161ACE710B5040003D0C7
:1017F00094F83D0010B107E0012010BD002084F8EE
:101800003C00204600F01EF8022084F83D00211D17
:10181000206800F05BFC012084F8460084F83E005C
:1018200084F83F0084F8400084F8410084F84200C6
:1018300084F8430084F8440084F8450084F83D00AF
:10184000002010BD7047704710B50446022249B110
:1018500004290ED0082913D094F84100012816D08D
:10186000012010BD94F83E000128F9D184F83E20F3
:101870000FE094F83F000128F2D184F83F2008E0FF
:1018800094F840000128EBD184F8402001E084F86E
:1018900041200122206800F069FC1249206888423A
:1018A00003D1426C42F400424264206888420ED068
:1018B000B0F1804F0BD00C49884208D00B498842C8
:1018C00005D00B49884202D00A49884204D1816878
:1018D00001F00701062903D0016841F00101016010
:1018E000002010BD0000014000040040000800403E
:1018F000000C00400040014010B50168144CB1F1EB
:10190000804F09D1134909680968C906216801D5C2
:10191000491E00E0491C21600F4A0168914209D12B
:101920000E4909680968C906616801D5491E00E0C9
:10193000491C616000680A49884208D101F0E6FA52
:1019400084ED040A074801F0C7FB84ED050A10BDC9
:10195000100000202C000020000C0040040100209A
:101960000008004094010020704770477047000055
:10197000F8B5016804460868CA684B6910F00F0F93
:101980004FF000055AD003F0010602F49077374378
:1019900065D0C10705D0D10503D5616C41F00101C7
:1019A0006164410705D5D90703D0616C41F002019C
:1019B0006164810705D5D90703D0616C41F004014A
:1019C0006164010707D502F02001314303D0616C47
:1019D00041F008016164616C00293BD0800604D5A8
:1019E000900602D5204600F0D4FC20684069616C66
:1019F000C0F3801001F00801014320462BD000F015
:101A0000A1FC20684069400621D52068143050E8C8
:101A1000001F21F0400140E80012002AF5D1E06BE0
:101A2000A8B172490165E06BFEF701FF002811D0F3
:101A3000E06B016D01B0BDE8F040084783060ED5AC
:101A400093060CD52046BDE8F84000F0A2BC204625
:101A5000FFF78CFFF8BDFFF789FF6564F8BD266BC3
:101A60002023012E7ED1C6067CD5D6067AD50868FD
:101A70004868009048694FF0020640064DD5E26B79
:101A8000106840684FF480770004000C3AD0A18DB4
:101A9000814237D9E085D069B8422DD020680C301A
:101AA00050E8001F21F4807140E80012002AF5D1AF
:101AB0002068143050E8001F21F0010140E80012B6
:101AC000002AF5D12068143050E8001F21F04001B1
:101AD00040E80012002AF5D184F8423025632068DE
:101AE0000C3050E8001F21F0100140E80012002ADD
:101AF000F5D1E06BFEF752FE6663A08DE18D401AD2
:101B000081B206E0A18D8142A8D1D069B842A5D1A9
:101B100066632046FFF729FFF8BDA08DE18D401ACE
:101B200081B2E08D0028F7D00029F5D020680C3074
:101B300050E8002F22F4907240E80027002FF5D1E2
:101B40002068143050E8002F22F0010240E80027FE
:101B5000002FF5D184F84230256320680C3050E81E
:101B6000002F00E006E022F0100240E80023002BE6
:101B7000F3D1CDE705062BD5150629D594F84100FC
:101B80002128C9D1A068B0F5805F01D12069B0B12A
:101B9000206A411C2162216800784860E08C401E68
:101BA0000004000CE084B7D12068C16821F08001F6
:101BB000C1602068C16841F04001C160F8BD206A81
:101BC0000088C0F308004860206A801C2062E5E7B6
:101BD0004006F3D55006F1D5CA68204622F04002EF
:101BE000CA6084F8413000F0C4F8F8BD372300081B
:101BF00070B5040004D094F84100002510B106E04F
:101C0000012070BD84F84050204600F023F82420C5
:101C100084F841002068C16821F40051C160204669
:101C200000F018FC2068016921F4904101612068EE
:101C3000416921F02A0141612068C16841F40051E5
:101C4000C1606564202084F8410084F84200656327
:101C5000002070BD10B586B0044614216846FEF71A
:101C6000EDFA18492068884229D1174800210268F6
:101C700042F010020260006800F010000590124867
:101C80001438026842F001020260006800F00100AE
:101C900005904FF4C06000900220CDE901010320BF
:101CA00003900720049069460848FEF7D3FD002200
:101CB00011462520FEF72CFF2520FEF71BFF06B05E
:101CC00010BD0000001001404438024000000240F6
:101CD00070472DE9F843044690F8410098461646AF
:101CE0000D46202802D00220BDE8F88385B17EB1E0
:101CF00000206064212084F84100FEF79BFEA6844A
:101D00008146E684A0682027B0F5805F02D003E01A
:101D10000120E9E7206910B12E4600250EE00026DB
:101D20000CE08021204600F01BFCA8B9C6B116F8D3
:101D3000010B21684860E08C401EE084E08C4B463B
:101D40004FF00002CDF800800028EAD14FF04001AA
:101D5000204600F005FC40B184F841700320C3E741
:101D600035F8020BC0F30800E3E784F84170002067
:101D7000BAE77047FEE700000D4808B5016841F07A
:101D800080010160016801F080010091016841F06B
:101D900001010160016801F001010091016841F059
:101DA00002010160006800F00200009008BD000020
:101DB0003038024010B58CB024216846FEF73EFA58
:101DC0000024164809944FF080410A94C0E9001499
:101DD0004FF6FF71C0E90241802104618161032057
:101DE000CDE900040120CDE902040A210491CDE9E6
:101DF0000540CDE9074169460848FFF7ADFA08B14B
:101E0000FEF7CAFC099409A904480A94FFF76AF985
:101E1000002801D0FEF7C0FC0CB010BD2C00002043
:101E200010B58EB000240794089409940A940B947A
:101E30001C2168460C94FEF701FA2A4828490160E3
:101E40005321C0E9011440F2E731C0E90314846171
:101E5000FFF786F908B1FEF79FFC4FF4805007901A
:101E600007A92048FFF70AFA08B1FEF795FC1D48BC
:101E7000FFF7BBFC08B1FEF78FFC0B940BA91948C8
:101E80000C94FFF72FF908B1FEF786FC6020CDE92E
:101E9000000402940022694612480494FFF73FFCB4
:101EA00008B1FEF779FC042269460E48FFF737FCBB
:101EB00008B1FEF771FC082269460A48FFF72FFCBB
:101EC00008B1FEF769FC0C2269460648FFF727FCBB
:101ED00008B1FEF761FC0348FFF7E4FB0EB010BD4C
:101EE000000400407400002010B586B0002417489C
:101EF000009401940294039404941349059401609E
:101F00005321C0E9011442F20F71C0E90314846146
:101F1000FFF726F908B1FEF73FFC4FF48050009020
:101F200069460A48FFF7AAF908B1FEF735FC0494A0
:101F300004A906480594FFF7D5F8002801D0FEF75C
:101F40002BFC06B010BD000000080040BC000020C3
:101F500010B58CB024216846FEF770F900241748AC
:101F6000099415490A94C0E900144FF6FF71C0E9BD
:101F700002418021046181610320CDE90004012038
:101F8000CDE902040A210491CDE90540CDE90741DC
:101F900069460A48FFF7E0F908B1FEF7FDFB09942E
:101FA00009A906480A94FFF79DF8002801D0FEF71A
:101FB000F3FB0CB010BD0000000C00400401002039
:101FC0000C4810B50A4901604FF4E131416000212D
:101FD00081600C22C160C0E904128161C161FFF718
:101FE00007FE002803D0BDE81040FEF7D5BB10BDAA
:101FF000001001404C010020FEE7FEE770477047EB
:10200000FEF71EBD30B593B030216846FEF716F9D5
:1020100014210CA8FEF712F91D480025016841F0B3
:1020200080510160006800F08050119019480168EB
:1020300021F4404141F4004101600068022400F4B1
:102040004040119001200090000401908001CDE9F2
:10205000064019200890A820CDE9090404200B901F
:102060006846FEF773FE08B172B6FEE70CA90F20B2
:1020700081E831004FF48050CDE90F0502210CA812
:10208000FEF778FD002801D072B6FEE713B030BD30
:1020900040380240007000400248016841F470017D
:1020A0000160704788ED00E00148FFF763BA000067
:1020B0002C0000200148FFF75DBA0000BC000020A2
:1020C0000148FFF757BA000004010020F0B502688C
:1020D0001F4B204C204D214E4FF0804C984207D092
:1020E000604505D0A04203D0A84201D0B04203D140
:1020F00022F070074A683A43984210D060450ED0EB
:10210000A0420CD0A8420AD0B04208D0144CA04241
:1021100005D0144CA04202D0134CA04203D122F4AB
:102120004074CA6822434C6922F0800222438C68C2
:10213000C4620C688462984201D109690163016834
:1021400041F004010160012141610260F0BD000025
:10215000000001400004004000080040000C004066
:1021600000400140004401400048014010B501F02A
:102170001F030121046A99408C430462016A9A405A
:102180001143016210BD10B5846842EA032224F4B1
:102190007F440A432243826010BD826822F07002AD
:1021A0000A4342F0070181607047000030B5036ABE
:1021B000026A22F0010202624268846924F0730517
:1021C0000C682C4323F002058B682B430A4DA84270
:1021D0000BD123F00805CB6822F440722B434D69E4
:1021E00023F0040315438A692A43426084614968E5
:1021F0004163036230BD00000000014030B5026A57
:10220000036A23F010030362436884690D6824F4B1
:10221000E64444EA05248D6822F0200242EA0512D1
:102220000B4DA8420ED1CD6822F0800242EA051281
:102230004D6923F4406343EA85038D6922F040022F
:1022400043EA85034360846149688163026230BD6B
:102250000000014030B5036A026A22F48072026213
:102260004268C46923F4007324F073050C682C439E
:102270008D6843EA05230C4DA8420ED1CD6823F4A6
:10228000006343EA05234D6922F4405242EA0512F5
:102290008D6923F4806342EA05124260C461496893
:1022A000C163036230BD00000000014030B5046A24
:1022B000026A22F4805202624268C3690D6823F404
:1022C000E64343EA05238D6824F4005444EA0534C8
:1022D000064DA84204D14D6922F4804242EA85129B
:1022E0004260C36149680164046230BD000001407E
:1022F00010B5036A046A24F001040462846924F0BE
:10230000F00444EA021423F00A020A4384610262E0
:1023100010BD10B5036A046A24F0100404628469D5
:1023200023F0A00324F4704444EA023243EA01118A
:102330008261016210BD10B5806B0021C185FFF77D
:1023400015FB10BD01680C3151E8002F22F490728A
:1023500041E80023002BF5D10168143151E8002F2A
:1023600022F0010241E80023002BF5D1016B012985
:1023700009D101680C3151E8002F22F0100241E828
:102380000023002BF5D1202180F8421000210163A9
:10239000704708B590F84210222901D0022008BDEC
:1023A00082684FF480539A4201D1016921B1816A58
:1023B0009A421BD04AB10AE00268816A5268C2F3AD
:1023C00008020A80816A891C08E0026972B1026809
:1023D000526802F07F020A70816A491C8162C18DD5
:1023E000491E0904090CC18503D01BE0026852682C
:1023F000F1E70168CA6822F02002CA600168CA6871
:1024000022F48072CA6001684A6922F001024A61BE
:10241000202180F8421000214163026B012A03D081
:10242000FFF756FC002008BD016301680C3151E83C
:10243000002F22F0100241E80023002BF5D10168A3
:102440000A68D20602D50A6849680091818DFFF7B3
:102450008CFAE7E770B5044600680169E26821F488
:102460004051114301612169A068E2690843616933
:10247000114308432168CA6849F20C639A43024336
:10248000CA6020684169A26921F440711143416129
:1024900031492068884202D03049884202D1FEF793
:1024A00013FC01E0FEF700FCE2690023192164251A
:1024B0003226B2F5004F626828D0A0FB0101930FCD
:1024C0009200FDF783FE0146B0FBF5F06FF01802B5
:1024D000504301EB800006EB0010B0FBF5F000F07C
:1024E000F002B1FBF5F002EB0012B1FBF5F06FF07A
:1024F0001803584301EB800006EB0010B0FBF5F029
:1025000000F00F0021681044886070BDA0FB01013D
:1025100092185B41FDF75AFE0146B0FBF5F002014F
:10252000B1FBF5F06FF01803584301EB800006EBA8
:10253000C000B0FBF5F000F0F80002EB4002B1FB88
:10254000F5F0584301EB800006EBC000B0FBF5F05E
:1025500000F00700D6E70000001001400014014021
:102560002DE9F843984617460D460446089E24E098
:10257000701C22D0FEF75EFAA0EB0800B0421AD819
:10258000CEB12068C168490717D5802D15D0402DE0
:1025900013D00168C94309070FD4016800254068BA
:1025A00000902046FFF7CEFE0820606484F840507B
:1025B0000120BDE8F8830320FBE72068006835EAC6
:1025C000000004D00020B842D2D00020F1E7012062
:1025D000F9E700000148FFF7CBB900004C010020EB
:1025E000FEE700000FB4054B10B503A9044A02989A
:1025F00000F0DAF810BC5DF814FB0000D92E0008DA
:10260000280000200907090E002804DB00F1E02063
:1026100080F80014704700F00F0000F1E02080F80F
:10262000141D704702E008C8121F08C1002AFAD121
:1026300070477047002001E001C1121F002AFBD142
:10264000704700002DE9FF5FDDE90220010DDDF894
:1026500038B0024318D044F61050A1F2FF31414384
:102660000D140F98012820D0A5EB0B00401C5FEA49
:10267000000A4FF00004474EDFF81C91A046504678
:1026800016D5CAF1000728E00F98012443A20128BB
:1026900008D0002100980F9BC0E90021C0E9024347
:1026A000BDE8FF9F6FEA0B01F4E7CBF10000DEE726
:1026B000074612E0F80707D022463346404649460F
:1026C000FDF76EFE8046894622463346104619467F
:1026D000FDF766FE04460E467F10002FEAD1DDE9C5
:1026E0000201BAF1000F42464B4602DAFDF758FEEE
:1026F00001E0FDF7C7FE04460E460022284BFEF718
:102700001FF803D84FF0FF30014607E00022254BA9
:1027100020463146FDF79DFDFDF7F9FF102409E045
:10272000002C0ADB0A220023FDF750FD019B30320A
:102730001A55641E50EA0102F2D1641C019AC4F1D8
:10274000110314440F9A012A03D0012208430DD12A
:102750000AE0084304D000204FF0110B0F9080E7EF
:10276000A3EB0B056D1E0DE05B4504DD4FF0000291
:1027700005F1010504E003DA4FF00002A5F10105BF
:10278000002AECD000980F99C0E90231C0E9004559
:1027900086E70000000024400000F03F3000000009
:1027A0000000F0430000E03F2DE9FF4F95B09B464D
:1027B0008946064600250FE2252877D100242746C2
:1027C000F84A0121059400E0044316F8013F203B3C
:1027D00001FA03F01042F7D130782A2811D06FF0B7
:1027E0002F033078A0F13002092A16D8059A44F058
:1027F000020402EB820203EB42021044761C0590B5
:10280000EFE759F8042B0592002A03DA504244F40A
:102810000054059044F00204761C30782E2816D11E
:1028200016F8010F44F004042A280DD06FF02F028F
:102830003078A0F13003092B09D807EB870302EBAE
:102840004303C718761CF3E759F8047B761C3078ED
:102850006C280FD006DC4C2817D068280DD06A28C9
:1028600014D104E0742810D07A280FD10DE044F47C
:1028700000140AE044F4801401E044F44014727837
:10288000824202D104F58014761C761C30786628CA
:102890000BD013DC582877D009DC002875D04528E8
:1028A000F6D04628F4D047281AD19DE118E06328D5
:1028B00035D0642879D0652812D195E1702873D07D
:1028C00008DC6728F1D069286FD06E280DD06F28FA
:1028D00006D1B5E073282CD0752875D0782874D02F
:1028E0005A46179990476D1C75E1C4F302500228AF
:1028F00009D003280DD0D9F8001004280DD00D60A0
:1029000009F1040967E1D9F80010EA17C1E900529A
:10291000F6E7D9F800100D80F2E70D70F0E719F82E
:10292000041B8DF8001000208DF80100EA460120FC
:1029300003E059F804AB4FF0FF3061074FF000019E
:1029400002D40DE008F101018846B9420FDA804552
:10295000F8DB1AF808100029F4D108E008F10101A9
:1029600088468142FADB1AF808100029F6D105984A
:102970005B46A0EB080721463846179A00F094FA08
:10298000284400EB080507E04DE029E10DE01AF8C6
:10299000010B5A4617999047B8F10108F7D25B46E8
:1029A00021463846179A13E142E00A220092C4F306
:1029B00002524FF0000A022A08D059F804CB032A29
:1029C0004FEAEC710AD00DE029E02AE009F1070195
:1029D00021F00702F2E802C1914609E00FFA8CFCEF
:1029E0004FEAEC71042A03D14FFA8CFC4FEAEC71E8
:1029F000002907DA0A460021DCF1000C61EB020134
:102A00002D2202E0220504D52B228DF8042001227C
:102A100003E0E20701D02022F7E7904659E00A21BF
:102A200002E010220DE010214FF0000A00910BE0AF
:102A300010224FF0000A44F004040827009203E03B
:102A400008224FF0000A0092C4F30252022A05D075
:102A500059F804CB0021032A08D009E009F1070145
:102A600021F00702F2E802C1914605E01FFA8CFC52
:102A7000042A01D10CF0FF0C4FF00008220728D5E2
:102A8000702806D0009B83F0100353EA0A0305D098
:102A90000EE040228DF80420012208E05CEA0102E9
:102AA00006D030228DF804208DF8050002229046D1
:102AB000009B83F0080353EA0A030AD15CEA01028F
:102AC00001D1620705D530228DF804204FF00108AE
:102AD0007F1E582804D034A003900EA802900DE069
:102AE00036A0F9E753466046009AFDF76FFB84462F
:102AF0000398825C0298401E029002705CEA01001A
:102B0000F0D1029806A9081A00F1200A600702D540
:102B100024F4803400E00127574502DDA7EB0A00CA
:102B200000E0002000EB0A01009005984144401AA3
:102B30000590E00306D45B462146179A059800F0FD
:102B4000B3F90544002706E001A85A46C05D17996D
:102B500090476D1C7F1C4745F6DBE0030CD55B46B8
:102B60002146179A059800F09FF9054404E03020AB
:102B70005A46179990476D1C0099481E00900029ED
:102B8000F5DC08E0029802995A460078491C029147
:102B9000179990476D1CBAF10001AAF1010AF1DC06
:102BA00065E1000009280100303132333435363711
:102BB0003839616263646566000000003031323389
:102BC0003435363738394142434445460000000029
:102BD00000F058F90544761C307800287FF4ECADFD
:102BE00019B02846BDE8F08F620700D4062709F126
:102BF000070222F0070CFCE80223E14603F000483C
:102C00005FEA080C02D00FF2702C0DE05FEA045C62
:102C100002D50FF2682C07E05FEAC47C02D00FF205
:102C2000602C01E0AFF2700C4FF0FF3823F000434E
:102C3000CDF850C065280CD006DC452809D04628C0
:102C40001DD047283DD13DE0662818D067287ED1A9
:102C500038E00021112F01DB112000E0781CCDE9C4
:102C6000000106A90EA8FFF7EDFCDDE90F010E9AA1
:102C700003910021009207F1010A04914DE04FF009
:102C800000400097CDE9011006A90EA8FFF7DAFC75
:102C9000DDE90F0203920E9B11990022DDF80CA0D2
:102CA0000093049211B9791C00EB010AB7EB0A00FA
:102CB00004D4C0F1FF3007F1010A0490AAEB070029
:102CC000019044E0012F00DA01270021112F01DDDE
:102CD000112000E03846CDE9000106A90EA8FFF753
:102CE000B1FCDDE90F010E9A0391002104910092DD
:102CF000BA4621070CD40399514500DA8A46BAF145
:102D0000010F05DD009AAAF10101515C302908D0BC
:102D1000B84202DA10F1040F06DA0121CDE9011000
:102D200015E0AAF10101E9E7002805DC0499014456
:102D30000491AAEB000102E0411C514500DD8A46E6
:102D40000499401A401C01904FF000400290200767
:102D500004D40198504501DBCDF8048000208DF8A3
:102D60004F0002980DF14F07B0F1004F25D02B20F6
:102D70000E9002984FF0020800280CDA40420290B0
:102D80002D200E9007E00A210298FDF71CFC30313F
:102D9000029007F8011DB8F10001A8F10108F2DC6A
:102DA00002980028EFD1791E0E980870307800F054
:102DB000200040F0450007F8020D12A8C01B00F1EA
:102DC00007081498007800B1012000EB0A0101986F
:102DD00001EBE07105984144401A401E0590E00364
:102DE00006D45B462146179A059800F05DF8054425
:102DF0001498007818B15A46179990476D1CE00353
:102E000024D55B462146179A059800F04DF80544F5
:102E10001CE00498002807DBDDE90301884203DD9C
:102E20000098405C179901E0179930205A46904766
:102E3000049805F10105401C04900198401E019082
:102E400004D12E205A46179990476D1CBAF1000103
:102E5000AAF1010ADDDC05E017F8010B5A461799C3
:102E600090476D1CB8F10001A8F10108F4DC5B4645
:102E70002146179A0598ABE62D0000002B000000B4
:102E8000200000002DE9F041044600251E461746AB
:102E9000880404D405E039462020B0476D1C641E28
:102EA000F9D52846BDE8F0812DE9F041044600251A
:102EB0001E469046C80301D5302700E0202788042D
:102EC00004D505E041463846B0476D1C641EF9D56F
:102ED0002846BDE8F081000013B54FF6FF730122CC
:102EE00069460248FEF7F5FE00981CBD4C01002023
:102EF00004480068406A044980B2496800EB014018
:102F000040427047040100201000002000B5FFF788
:102F1000EFFF0A4AD168D060411A41F27070414314
:102F2000C81701EB907080104FF4BB7190FBF1F06B
:102F300000EE100AB8EEC00A00BD0000100000202C
:102F4000FDF786FDFFF75EF8FEF716FFFEF732FF8E
:102F5000FEF7FEFFFEF764FFFEF7C6FFFFF730F84F
:102F600000211848FEF770FC04211648FEF76CFC9F
:102F700008211448FEF768FC0C211248FEF764FC97
:102F800011486FF00104006804613C210E48FEF70F
:102F9000A9FA0D48FEF73CF90C48006804613C2191
:102FA0000A48FEF79FFA0948FEF732F90848FEF78B
:102FB0002FF900F04BF8074C94ED000A00F00CF8E4
:102FC000FAE70000740000202C000020040100201B
:102FD000BC0000202400002010B52DED048BB0EEC5
:102FE000408AB0EEC80A10EE100AFDF7D9FA9FED3C
:102FF000121B53EC112BFDF745FA9FED119B53EC7F
:10300000192BFDF7CDF953EC192BFDF7C6F9FDF798
:10301000A8FA0D49B5EEC08A4FF47A73F1EE10FAB2
:103020000A6805DB936309684863BDEC048B10BD37
:10303000906308684363F8E70000000000406540C3
:103040000000000000408F40740000201C48BBEED0
:103050000E0ADFED1D0A80ED000A9FED1A0A80EDD1
:10306000010A80ED020A80ED060A80ED070A80ED74
:10307000080AC0ED030ADFED150AC0ED040A80ED71
:10308000050ADFED130A80ED090AC0ED0A0ADFED3B
:10309000110A2C30C0ED000A80ED010A80ED020A11
:1030A00080ED060A80ED070A80ED080AF7EE000AB7
:1030B000C0ED030A80ED040A80ED050A70470000A8
:1030C00094010020000000009A99993F9A99193EB6
:1030D000CDCC4C3F0098644610B52DED028B0446D4
:1030E000D0ED0A0A90ED091A20EE818AB7EE001A97
:1030F00071EE600A00EE808A80ED098A18EE100AEF
:10310000FDF74EFA41EC100B21A053EC102BFFF70A
:1031100069FA94ED000AB0EE002A1F4970EE480AE1
:10312000C4ED060A94ED071AD4ED031A30EEC10A75
:1031300020EE210AD4ED041A01EEA00AF0EE601A86
:1031400041EE421A94ED082A71EE821A94ED052A96
:1031500002EE210AD4ED011A30EE210A10EE100A17
:1031600084ED010A84ED081AC4ED070A884202DDE5
:103170009FED0A0A06E010EE100A0949884203D9B9
:103180009FED080A84ED010ABDEC028B10BD000022
:10319000252E32660A0000000000CC420000CC421E
:1031A0000000CCC20000CCC2000000000000000003
:1031B00001020304060708090000000001020304DD
:1031C000E0310008000000202C0000002426000848
:1031D0000C3200082C000020C40500003426000832
:1031E0000100000010000000000000000024F400B6
:1031F00000000000000000000000000000000000CF
:0C320000000000000000000000000000C2
:040000050800019559
:00000001FF
