:020000040800F2
:1000000090080020A9010008EF2400080D1F000837
:10001000ED240008C1080008E92A000800000000DB
:10002000000000000000000000000000F3240008B1
:100030001109000800000000F1240008F524000860
:10004000C3010008C3010008C3010008C301000880
:10005000C3010008C3010008C3010008C301000870
:10006000C3010008C3010008C3010008C301000860
:10007000C3010008C3010008C3010008C301000850
:10008000C3010008C3010008C3010008000000000C
:10009000000000000000000000000000C301000894
:1000A000C3010008C3010008C3010008C301000820
:1000B000B1250008C3010008BD250008C3010008E0
:1000C000C3010008C3010008C3010008C301000800
:1000D000C3010008DD2A0008C30100080000000079
:1000E000C3010008C3010008C301000800000000AC
:1000F000000000000000000000000000C301000834
:1001000000000000C3010008C9250008C301000861
:1001100000000000000000000000000000000000DF
:10012000C3010008C3010008C3010008C30100089F
:10013000C3010008000000000000000000000000F3
:10014000000000000000000000000000C3010008E3
:10015000C3010008C3010008C3010008C30100086F
:10016000C3010008C30100080000000000000000F7
:10017000000000000000000000000000000000007F
:1001800000000000C30100080000000000000000A3
:10019000C3010008DFF80CD000F02EFB0048004738
:1001A000AD36000890080020064880470648004702
:1001B000FEE7FEE7FEE7FEE7FEE7FEE7FEE7FEE717
:1001C000FEE7FEE7A1250008950100082DE9F05F94
:1001D0000546002092469B468846064681464024B6
:1001E0001BE0284641464746224600F01FFA534688
:1001F0005A46C01A914110D311461846224600F0C3
:1002000006FA2D1A67EB01084F462246012000210D
:1002100000F0FDF917EB00094E41201EA4F1010486
:10022000DFDC484631462A464346BDE8F09FD2B25D
:1002300001E000F8012B491EFBD270470022F6E7CF
:1002400010B513460A4604461946FFF7F0FF20464C
:1002500010BD2DE9FE4F804681EA0300C00F0C4619
:10026000009021F0004123F00045B8EB0200A941C5
:1002700005D24046214690461C460B46024623F0D6
:100280000040104347D0270DC7F30A00C3F30A51BB
:100290000290401A019040286BDAC3F3130040F437
:1002A000801B0098924620B10023D2EB030A63EB37
:1002B0000B0B01985946C0F14002504600F0A7F9D7
:1002C00006460D4650465946019A00F0BFF910EB1C
:1002D00008006141002487EA115284EAE7731A4357
:1002E00040D0009A62B3019A012A4FEA075215DC06
:1002F000001B61EB02014FF0004202EA0752CDE918
:100300000042001C41F5801132462B4600F0F6F900
:1003100003B0BDE8F08F40462146F9E7001B61EBD2
:100320000201001C41F5801300185B412018A2F562
:10033000001747EB030140EAD570B6196D4111E093
:100340006D084FEA360645EAC0754FEA0752001BB2
:1003500061EB0201001C41F5801149084FEA3000B1
:100360000019514132462B4603B0BDE8F04F00F072
:10037000B6B90098012240000023D0EB020263EBE3
:10038000E073009821464FEAE074B8EB000061EB9F
:100390000401E9E783F000435BE781F0004158E79F
:1003A0002DE9FE4F81EA030404F0004421F00041EE
:1003B00000944FF0000B23F0004350EA01045ED09C
:1003C00052EA03045BD0C3F30A54C1F30A552C4428
:1003D000A4F2F3340194A0FB0254C1F3130141F4DD
:1003E0008011C3F3130343F4801301FB024400FBA9
:1003F000034E840A970A44EA815447EA8357A4FBD0
:10040000076802958D0A05FB07854FEA932C04FBCC
:100410000C542705029D4FEA065847EA1637B5EBFC
:1004200008056EEB070C870E920E47EA811742EA29
:100430008312A7FB0201B6EB0B0164EB00042B0D4A
:1004400043EA0C335E1844EB1C50DA465146E7FB96
:100450000201C5F313044FEA0B3343EA14534FEA86
:100460000432019C43EA0603A4F10C040294009CAC
:10047000CDE900B400F042F903B0BDE8F08F0020F0
:100480000146F9E72DE9F04D81EA030404F0004B41
:1004900021F0004514464FF0000A23F0004150EAD5
:1004A000050220D054EA01021DD0C5F30A570246C6
:1004B000C5F31303C1F31300C1F30A5640F48015CA
:1004C00043F48013A7EB0608101BD64608F2FD384C
:1004D00073EB050002D308F1010801E092185B41BB
:1004E000B8F1000F03DA00200146BDE8F08D0020CE
:1004F0004FF48011064684460EE0171B73EB050788
:1005000005D3121B63EB050306434CEA010C4908B3
:100510004FEA300092185B4150EA0107EDD152EAF0
:10052000030012D082EA040083EA0501084305D0E3
:10053000101BAB4106D20122002306E000224FF03F
:10054000004302E06FF0010253101AEB06004CEB7F
:10055000085110EB0A0041EB0B01BDE8F04D00F033
:10056000BEB80EB5C10F80EAE0700844CA0700218A
:1005700040F233438DE80E000A460B4600F0BEF809
:1005800003B000BD00F0004230F000400AD0C10DC1
:1005900001F56071C0F3160042EA0151C20840073C
:1005A0001143704700200146704701F0004330B40A
:1005B00021F0004150EA010206D00A0DA2F5607256
:1005C000C1F31301002A02DC30BC00207047440F45
:1005D00044EAC104C100E01830BC00EBC25000F096
:1005E00047B830B50B46014600202022012409E01F
:1005F00021FA02F59D4205D303FA02F5491B04FADC
:1006000002F52844151EA2F10102F1DC30BD202ABA
:1006100004DB203A00FA02F1002070479140C2F159
:10062000200320FA03F3194390407047202A04DB8B
:10063000203A21FA02F00021704721FA02F3D0405B
:10064000C2F120029140084319467047202A06DB78
:10065000CB17203A41FA02F043EAE07306E041FA90
:1006600002F3D040C2F1200291400843194670477E
:100670000029A8BF7047401C490008BF20F00100B6
:10068000704710B4B0FA80FC00FA0CF050EA010494
:1006900004BF10BC704749B1CCF1200421FA04F426
:1006A00011FA0CF118BF012121430843A3EB0C01FF
:1006B000CB1D4FEA00614FEA102042BF002010BC62
:1006C000704700EBC35010440029A4BF10BC704712
:1006D000401C490008BF20F0010010BC704710B555
:1006E000141E73F1000408DA401C41F10001921855
:1006F0005B411A4301D120F0010010BD2DE9F04DFE
:1007000092469B4611B1B1FA81F202E0B0FA80F252
:1007100020329046FFF77BFF04460F4640EA0A006E
:1007200041EA0B0153465A46084313D0114653EA97
:10073000010019D0C8F140025046FFF777FF054687
:100740000E46504659464246FFF761FF084305D022
:10075000012004E020463946BDE8F08D0020054325
:1007600046EAE0762C4337430A986305E40AA0EB97
:1007700008000022FD0A44EA47540A3002D500204E
:100780000146E9E7010510196941DDE9084500194D
:100790006941BDE8F04DA2E7C1F30A52C1F313016C
:1007A00040F2FF3341F480119A4202DA0020014600
:1007B000704740F233439A42A2F2334202DC524283
:1007C000FFF734BFFFF723BF30B5041E71F10004FB
:1007D00004DB4FF00044404264EB0101141E73F14E
:1007E000000405DB1C464FF00043524263EB040358
:1007F000994208BF904230BD064C074D06E0E068C4
:1008000040F0010394E8070098471034AC42F6D357
:10081000FFF7C4FC203C0008403C00082DE9F041F3
:100820000024124E2746E1B2032002F077F9022598
:1008300037700321342002F07FF9052002F0C6FE54
:10084000307828B12146BDE8F04109A002F01EBA77
:100850006D1EEDD1641C7F2CE5DB0BA002F016FAB7
:10086000BDE8F0410EA002F011BA00000000002027
:1008700066696E642025303258206164647220738A
:10088000656E736F720D0A0063616E206E6F742067
:1008900066696E642073656E736F720D0A000000E6
:1008A000706C6561736520636865636B20796F7533
:1008B0007220636F6E6E656374696F6E0D0A00005F
:1008C000FEE7000010B50023104A15E0362809D0D5
:1008D00039280BD03C2812D014783F2813D044F08C
:1008E000800406E0147844F0010402E0147844F037
:1008F00002041470401C5B1C8B42E7D310BD1478BB
:1009000044F00804F5E744F00404F2E70000002096
:100910007047C000401EFDD2704702F057BE72B64D
:10092000FEE72DE9F0410446876D00F04FF90646D9
:1009300094F835000025022806D08020606584F8F0
:1009400034500120BDE8F0812068016821F01601D3
:1009500001602068416921F080014161206C08B983
:10096000A06C20B12068016821F0080101602068B6
:10097000016821F0010101600CE000F027F9801B03
:10098000052807D920206065032084F8350084F805
:100990003450D7E720680068C007EED194F85C10A7
:1009A0003F208840B860012084F8350084F8345036
:1009B0000020C7E790F83510022903D08021416557
:1009C00001207047052180F835100068016821F08A
:1009D00001010160002070472DE9F84FDFF8B8A150
:1009E0000022012403254FF00F090AF1040BAAF19C
:1009F000040E00BF0B6804FA02F63340B34273D111
:100A00000F7907F00307012F01D0022F16D1876855
:100A10004FEA420805FA08FC27EA0C07D1F80CC097
:100A20000CFA08FC4CEA070CC0F808C04768B7434A
:100A30000E79C6F3001696403E4346600E79F643A3
:100A4000B6070DD0C768560005FA06FC27EA0C0762
:100A5000D1F808C00CFA06FC4CEA070CC0F80CC030
:100A60000E7906F00306022E10D1D60800EB860898
:100A7000D8F8206057074FEAD76C09FA0CF7BE4345
:100A80000F6907FA0CF73743C8F8207006684FEA79
:100A9000420C05FA0CF7BE430F7907F0030707FA7B
:100AA0000CF7374307604E6816F4403F6DD03B4E5D
:100AB000376847F480473760366822F0030706F44A
:100AC00080460096364E07EB060CDCF80868970760
:100AD0003F0F09FA07F826EA0806DFF8C880404504
:100AE00003D14FF000081EE04FE0DFF8BC80404526
:100AF00002D14FF0010816E0DFF8B080404502D186
:100B00004FF002080FE0DFF8A880404502D14FF017
:100B1000030808E0DFF89C80404502D14FF004084C
:100B200001E04FF0070808FA07F848EA0608CCF891
:100B30000888DAF800605746D1F804C09E435FEA9F
:100B4000CC2C00D51E433E60DBF800605F46D1F838
:100B500004C09E435FEA8C2C00D51E433E60DEF845
:100B600000607746D1F804C09E435FEA8C3C00D514
:100B70001E433E60084F083F3E68D1F804C09E43C4
:100B80005FEACC3C00D51E433E60521C102AFFF4A5
:100B900031AFBDE8F88F0000083C01404438024006
:100BA0000030014000000240000402400008024002
:100BB000000C0240001002400069084000D00120F3
:100BC00070470AB1816170470904FBE701488068FA
:100BD0007047000018000020024881680278114424
:100BE00081607047180000200B4810B5016841F47F
:100BF00000710160016841F480610160016841F4A5
:100C000080710160032000F06FF80F2000F006F8FB
:100C100000F024F8002010BD003C024070B50D4DDE
:100C200004464FF47A712878B1FBF0F00A4909685C
:100C3000B1FBF0F000F00CFB48B9102C07D20022F9
:100C40002146501E00F030F800206C6070BD01207D
:100C500070BD000018000020240000200A4808B5DC
:100C6000016841F480410160006800F48040009018
:100C70000548001F016841F080510160006800F0E4
:100C80008050009008BD000044380240002809DB75
:100C900000F01F02012191404009800000F1E02096
:100CA000C0F8001170470000F0B40E4B1B680C46F2
:100CB000C3F30223C3F10705042D00D90425191D30
:100CC000072901D2002300E0DB1E012606FA05F108
:100CD000491E214099409E40761E16403143F0BC8B
:100CE00001F0FABF0CED00E0064900F007020868C9
:100CF0004FF6FF03184040EA0220034A1043086001
:100D0000704700000CED00E00000FA052DE9F04707
:100D10000E46050065D0DFF81481D8F80000F7B260
:100D200000F00700B04207D288F80070D8F8000041
:100D300000F00700B04254D128683D4C810712D51D
:100D4000400703D5206840F4E05020602878000771
:100D500003D5206840F4604020602068A96820F036
:100D6000F000084320602878C0072DD0304968681B
:100D70000839012812D0022813D0032811D009689D
:100D8000890700292DDA216821F003010143216040
:100D9000FFF71CFF814641F2883A0EE0096889039B
:100DA000EFE709688901ECE7FFF710FFA0EB090105
:100DB000514502D90320BDE8F0872068696800F03A
:100DC0000C00B0EB810FEFD1D8F80010404601F0D5
:100DD0000701B14207D90770006800F00700B04270
:100DE00001D00120E7E72878400705D52068E968A9
:100DF00020F4E050084320602878000706D52068DA
:100E0000296920F4604040EAC100206000F038F811
:100E10002168084AC1F30311515CC84006490860C3
:100E200006480068FFF7FAFE0020C4E7003C0240D5
:100E300008380240083A0008240000201C00002066
:100E40000448054900680968044AC1F38221515CDD
:100E5000C84070472400002008380240183A0008B3
:100E60000448054900680968044AC1F34231515CED
:100E7000C84070472400002008380240183A000893
:100E8000154810B5006810F00C02144813D014492E
:100E9000042A0FD0082A0ED10F4C241F2268236881
:100EA00002F03F025B0207D52068C0F38810A0FB68
:100EB000010106E0084610BD2168C1F38811A1FBBD
:100EC00000010023FFF782F92168C1F30141491CA9
:100ED0004900B0FBF1F010BD083802400024F400D6
:100EE00040787D012DE9F84F04006ED02078DFF8BE
:100EF0004C93C007A9F104054AD009F10400016828
:100F0000C1F38101012908D00068C0F381000228E3
:100F10000AD1D9F80000400206D52868800337D5E9
:100F200060680028E1D033E06068B0F5803F10D001
:100F3000B0F5A02F286810D020F4803028602868F1
:100F400020F4802028606068A8B1FFF73FFE0646C5
:100F50000DE0286840F48030F4E740F480202860F9
:100F6000F7E700BFFFF732FE801B642873D82868BC
:100F70008003F7D50CE0FFF729FE064605E000BF29
:100F8000FFF724FE801B6428F0D828688003F7D47C
:100F90002078DFF8AC8280074FF0000A3ED5A748E2
:100FA000001D016811F00C0F08D00068C0F381002B
:100FB00002280BD1D9F80000400207D42868800726
:100FC00016D5E068012800D112E033E1E068B8B13D
:100FD0000120C8F80000FFF7F9FD064605E000BF54
:100FE000FFF7F4FD801B0228C0D828688007F7D5DA
:100FF0002868216920F0F80040EAC10028600DE06F
:10100000C8F800A0FFF7E2FD064604E0FFF7DEFDAA
:10101000801B02281FD828688007F7D42078000793
:1010200022D5864F87486169703771B1012101600F
:10103000FFF7CCFD064604E0FFF7C8FD801B022841
:1010400009D838688007F7D50EE0C0F800A0FFF790
:10105000BDFD064605E082E0FFF7B8FD801B0228D3
:101060007DD838688007F7D42078400768D5DFF846
:10107000CCB100270BF13C0BDBF80000C0000BD417
:10108000DBF8001041F08051CBF80010DBF80000D5
:10109000012700F0805000906B4E3068C00510D4DE
:1010A000306840F480703060FFF790FD009005E0FC
:1010B000FFF78CFD0099401A022850D83068C0050F
:1010C000F6D55E4EA0686C3601280FD00528306832
:1010D00010D020F001003060306820F00400306053
:1010E000A068B8B1FFF772FD00900FE0306840F0E3
:1010F0000100F4E740F004003060F7E7FFF766FD19
:101100000099411A41F28830814266D830688007E0
:10111000F4D50EE0FFF75AFD009007E0FFF756FD0B
:101120000099411A41F28830814256D830688007D0
:10113000F4D42FB1DBF8001021F08051CBF800106F
:10114000A069C8B33D49091D0968C1F3810102299D
:101150004AD00228504607D0C8F8600000E03CE0C2
:10116000FFF734FD04463BE04746C8F86000FFF750
:101170002DFD064605E000BFFFF728FD801B022875
:101180002BD828688001F7D4D4E907010843A16A65
:101190002E4A490802EB0141626A41EA8211084382
:1011A00094F82C1040EA0161C9F80010012038665B
:1011B000FFF70CFD044606E03EE000BFFFF706FD2A
:1011C000001B022809D828688001F7D534E000BF49
:1011D000FFF7FCFC001B022802D90320BDE8F88FB2
:1011E00028688001F4D427E00128F7D0D9F800005E
:1011F000E26900F4800191421CD1226A00F03F01B3
:10120000914217D147F6C071626A0140B1EB821F6B
:1012100010D1A26A4FF0FF3300F4403103EB5202C9
:10122000B1EB024F06D194F82C1000F07060B0EBD7
:10123000016F01D00120D1E70020CFE70438024040
:1012400000004742800E4742007000400000FFFF50
:1012500010B5401EB0F1807F01D3012010BD4FF0CA
:10126000E02460610F21601701F036FD0020A061CD
:1012700007202061002010BD7047704770B590F8BE
:101280003C20012A2CD0012480F83C40022280F826
:101290003D2003685A689D6822F070060A68324350
:1012A0005A60104B02689A420ED0B2F1804F0BD0B8
:1012B0000D4B9A4208D00D4B9A4205D00C4B9A42E6
:1012C00002D00C4B9A4204D1496825F0800319439F
:1012D000916080F83D40002180F83C10084670BDC8
:1012E000022070BD000001400004004000080040E2
:1012F000000C00400040014010B5040003D094F8F9
:101300003D0010B107E0012010BD002084F83C0032
:10131000204600F01FF8022084F83D00211D2068BF
:1013200001F058F9012084F8460084F83E0084F862
:101330003F0084F8400084F8410084F8420084F8BB
:10134000430084F8440084F8450084F83D00002000
:1013500010BD000008B5114A01681148914208D13A
:10136000016841F002010160006800F00200009095
:1013700008BD0C4A9142FBD1016841F004010160B3
:101380000068002200F00400009011461E20FFF7C4
:101390008BFCBDE808401E20FFF778BC000400402D
:1013A000403802400008004090F83D10012901D06B
:1013B00001207047022180F83D100168CA6842F0A0
:1013C0000102CA6000680E4988420ED0B0F1804F19
:1013D0000BD00C49884208D00B49884205D00B49F4
:1013E000884202D00A49884204D1816801F007018D
:1013F000062903D0016841F0010101600020704717
:10140000000001400004004000080040000C0040C3
:101410000040014070B5044690F83C0000250128CA
:1014200017D0012684F83C60022084F83D00206833
:10143000826822F0770222F47F4282600868502896
:1014400038D00DDC20284FD005DC90B3102811D106
:101450004AE0022070BD302846D040280AD13BE047
:1014600060282FD070280DD0B0F5805F03D0B0F584
:10147000005F12D0012584F83D60002084F83C0014
:10148000284670BDCB68D1E90121206801F0FFF842
:101490002068816841F0770109E0CB68D1E901213A
:1014A000206801F0F4F82068816841F4804181608F
:1014B000E1E719E0CA684968206801F09DF9502108
:1014C000206806E0CA684968206801F0A6F9602132
:1014D000206801F0E6F8CEE7CA684968206801F0A4
:1014E0008BF940212068F4E7226801461046F0E7B6
:1014F0002DE9F0410D46040003D094F83D0018B1E9
:1015000008E00120BDE8F081002084F83C0020467E
:1015100000F040F8022084F83D002068816844F221
:10152000070291438160211D206801F053F8226871
:1015300090689169166A2B68AF69034340F20330E3
:10154000814341EA0721A868EF6908434FF6FC414F
:101550008843E96840EA0720014328692F6A0001AF
:1015600040EA0730084369686D6926F0AA0646EA32
:101570000515294393602268906154F8460B016277
:10158000012004F81F09E0752076E0762077A07529
:101590000020B7E770B586B0044614216846FEF710
:1015A0004DFE324923680024304A10390225304864
:1015B000B3F1804F26D02F4EB34221D1136843F0B0
:1015C00008031360126802F0080205920A6842F0EC
:1015D00001020A60096801F00101059103210091EF
:1015E000CDE901546946CDE90345FFF7F5F900223D
:1015F00011463220FFF758FB5FF03200FFF746FB41
:1016000006B070BD136843F001031360126802F066
:10161000010205920A6842F001020A600A6802F0BB
:10162000010205920A6842F002020A600968012676
:1016300001F00201059120210091CDE90154CDE98D
:1016400003466946FFF7C8F908200090CDE9015428
:10165000CDE9034669460848FFF7BEF90022114666
:101660001C20FFF721FB1C20C8E700004038024087
:1016700000000240000C00400004024070B590F8E9
:101680003E60044690F83F5090F8423090F8432076
:10169000022021B104290ED0012E1BD114E0012E0D
:1016A00018D1012B16D184F83E0084F842000122A3
:1016B0000021206820E0012D0CD1012A0AD184F8F4
:1016C0003F0084F8430014E0012D03D1012B01D128
:1016D000012A01D0012070BD84F83E0084F83F004B
:1016E00084F8420084F8430001220021206800F0C1
:1016F000C1FF01220421206800F0BCFF20680168BE
:1017000041F001010160002070BD70472DE9F041FA
:1017100004460068C66805694FF00007A90713D59D
:10172000B10711D5F91E0161012020772068806979
:101730008007204602D0FFF7E8FF04E000F0BAF887
:10174000204600F04CF92777680716D5700714D5A6
:1017500021686FF00400086102202077206880690A
:1017600010F4407F204602D0FFF7CFFF04E000F0E6
:10177000A1F8204600F033F92777280715D5300760
:1017800013D521686FF008000861042020772068D5
:10179000C0698007204602D0FFF7B7FF04E000F0E1
:1017A00089F8204600F01BF92777E80616D5F006E1
:1017B00014D521686FF01000086108202077206898
:1017C000C06910F4407F204602D0FFF79EFF04E07E
:1017D00000F070F8204600F002F92777E80708D0FB
:1017E000F00706D021686FF001000861204600F084
:1017F0004FF9280608D5300606D521686FF080001D
:1018000008612046FFF738FD680608D5700606D542
:1018100021686FF040000861204600F071F9A806C9
:101820000AD5B00608D521686FF02000086120466F
:10183000BDE8F041FFF721BDBDE8F08130B587B0CC
:10184000044614216846FEF7F9FC164920688842D0
:1018500026D115480024016841F0010101600168AA
:1018600001F001010591016841F002010160006889
:10187000022500F002000590C0200090CDE901543F
:1018800069460A48CDE90345FFF7A6F80320009012
:10189000CDE9015469460648CDE90345FFF79CF8B8
:1018A00007B030BD00040040303802400000024064
:1018B00000040240704770B5044690F83C000026D2
:1018C0000D4601280FD0012084F83C006AB1042A9B
:1018D0001DD0082A2FD00C2A3FD00126002084F8E2
:1018E0003C00304670BD022070BD206800F0E2FE72
:1018F0002068816941F0080181612068816921F0D7
:1019000004018161206881692A69114311E020681E
:1019100000F0F8FE2068816941F40061816120686F
:10192000816921F480618161206881692A6941EAC5
:1019300002218161D2E7206800F010FF2068C169B0
:1019400041F00801C1612068C16921F00401C16151
:101950002068C1692A69114311E0206800F02AFF5C
:101960002068C16941F40061C1612068C16921F446
:101970008061C1612068C1692A6941EA0221C161AF
:10198000ACE710B5040003D094F83D0010B107E0B7
:10199000012010BD002084F83C00204600F01EF815
:1019A000022084F83D00211D206800F013FE012074
:1019B00084F8460084F83E0084F83F0084F8400034
:1019C00084F8410084F8420084F8430084F844001D
:1019D00084F8450084F83D00002010BD7047704732
:1019E00010B50446022249B104290ED0082913D0AB
:1019F00094F84100012816D0012010BD94F83E0053
:101A00000128F9D184F83E200FE094F83F00012826
:101A1000F2D184F83F2008E094F840000128EBD18F
:101A200084F8402001E084F841200122206800F081
:101A300021FE12492068884203D1426C42F40042E0
:101A40004264206888420ED0B0F1804F0BD00C4920
:101A5000884208D00B49884205D00B49884202D001
:101A60000A49884204D1816801F00701062903D0A0
:101A7000016841F001010160002010BD000001403B
:101A80000004004000080040000C004000400140FD
:101A900010B50168144CB1F1804F09D113490968A0
:101AA0000968C906216801D5491E00E0491C21606A
:101AB0000F4A0168914209D10E4909680968C906AF
:101AC000616801D5491E00E0491C616000680A494F
:101AD000884208D101F0AEFD84ED040A074801F008
:101AE00041FF84ED050A10BD28000020B000002051
:101AF000000C00408801002000080040180200206F
:101B00007047704770470000F8B5016804460868E0
:101B1000CA684B6910F00F0F4FF0000559D003F061
:101B2000010602F49077374365D0C10705D0D1058F
:101B300003D5616C41F001016164410705D5D90706
:101B400003D0616C41F002016164810705D5D907BA
:101B500003D0616C41F004016164010707D502F014
:101B60002001314303D0616C41F008016164616C74
:101B700000293AD0800604D5900602D5204600F010
:101B80008CFE20684069616CC0F38010090700D4A6
:101B900060B3204600F05AFE20684069400621D517
:101BA0002068143050E8001F21F0400140E8001286
:101BB000002AF5D1E06BA8B172490165E06BFEF730
:101BC000F9FE002811D0E06B016D01B0BDE8F040D6
:101BD000084783060FD593060DD52046BDE8F8408B
:101BE00000F05BBE2046FFF78DFFF8BD2046FFF7F3
:101BF00089FF6564F8BD266B2023012E7ED1C606C1
:101C00007CD5D6067AD508684868009048694FF0B8
:101C1000020640064DD5E26B106840684FF48077AD
:101C20000004000C3AD0A18D814237D9E085D069FB
:101C3000B8422DD020680C3050E8001F21F480718C
:101C400040E80012002AF5D12068143050E8001F47
:101C500021F0010140E80012002AF5D1206814307B
:101C600050E8001F21F0400140E80012002AF5D1A1
:101C700084F84230256320680C3050E8001F21F0C2
:101C8000100140E80012002AF5D1E06BFEF749FE92
:101C90006663A08DE18D401A81B206E0A18D81427C
:101CA000A8D1D069B842A5D166632046FFF729FFC5
:101CB000F8BDA08DE18D401A81B2E08D0028F7D0EB
:101CC0000029F5D020680C3050E8002F22F49072E3
:101CD00040E80027002FF5D12068143050E8002F8D
:101CE00022F0010240E80027002FF5D184F84230AD
:101CF000256320680C3050E8002F00E006E022F059
:101D0000100240E80023002BF3D1CDE705062BD5C8
:101D1000150629D594F841002128C9D1A068B0F54D
:101D2000805F01D12069B0B1206A411C2162216825
:101D300000784860E08C401E0004000CE084B7D1BD
:101D40002068C16821F08001C1602068C16841F04D
:101D50004001C160F8BD206A0088C0F308004860F7
:101D6000206A801C2062E5E74006F3D55006F1D5D5
:101D7000CA68204622F04002CA6084F8413000F070
:101D8000C4F8F8BD3F28000870B5040004D094F8EA
:101D90004100002510B106E0012070BD84F84050DC
:101DA000204600F023F8242084F841002068C16810
:101DB00021F40051C160204600F0D0FD2068016987
:101DC00021F4904101612068416921F02A014161BB
:101DD0002068C16841F40051C1606564202084F826
:101DE000410084F842006563002070BD10B586B0E4
:101DF000044614216846FEF721FA184920688842F3
:101E000029D117480021026842F0100202600068E0
:101E100000F01000059012481438026842F00102E8
:101E20000260006800F0010005904FF4C06000906F
:101E30000220CDE9010103200390072004906946A8
:101E40000848FEF7C9FD002211462520FEF72CFFA9
:101E50002520FEF71BFF06B010BD0000001001405A
:101E6000443802400000024070472DE9F843044620
:101E700090F84100984616460D46202802D00220D0
:101E8000BDE8F88385B17EB100206064212084F82C
:101E90004100FEF79BFEA6848146E684A0682027C9
:101EA000B0F5805F02D003E00120E9E7206910B1BE
:101EB0002E4600250EE000260CE08021204600F092
:101EC000D3FDA8B9C6B116F8010B21684860E08CB3
:101ED000401EE084E08C4B464FF00002CDF80080BD
:101EE0000028EAD14FF04001204600F0BDFD40B18E
:101EF00084F841700320C3E735F8020BC0F30800F3
:101F0000E3E784F841700020BAE77047FEE700007D
:101F100010B5104C002240212046FEF752FE8020D2
:101F200001F0B4FB002280212046FEF74AFE052086
:101F3000FEF7EFFC012240212046FEF742FE05207D
:101F4000FEF7E7FC20460022BDE810404021FEF7E6
:101F500038BE00000004024010B5802001F096FB5E
:101F6000064C012280212046FEF72BFE204601224E
:101F7000BDE810404021FEF724BE000000040240EE
:101F800010B5104C002240212046FEF71AFE80209A
:101F900001F07CFB012280212046FEF712FE052085
:101FA000FEF7B7FC012240212046FEF70AFE05207D
:101FB000FEF7AFFC20460022BDE810404021FEF7AE
:101FC00000BE0000000402402DE9F0410746002455
:101FD000802001F049FB144E0025002240213046AC
:101FE000FEF7EFFD0520FEF794FC0122402130466C
:101FF000FEF7E7FD6006040E80213046FEF7DCFDAB
:1020000008B1641CE4B20520FEF783FC6D1CEDB240
:10201000082DE2D317B1FFF77BFF01E0FFF7B0FF18
:102020002046BDE8F08100000004024070B505467E
:10203000802001F02BFB154E002240213046FEF798
:10204000C0FD0024280601D5012200E000228021E5
:102050003046FEF7B6FD0220FEF75BFC0122402170
:102060003046FEF7AEFD0520FEF753FC6806050E70
:10207000002240213046FEF7A4FD0320FEF749FC74
:10208000641CE4B2082CDDD370BD000000040240E3
:1020900010B5802001F0FAFA0E4C01228021204672
:1020A000FEF78FFD012240212046FEF78AFD052024
:1020B000FEF72FFC002280212046FEF782FD05203E
:1020C000FEF727FC20460022BDE810404021FEF725
:1020D00078BD00000004024010B5802001F0D6FA5F
:1020E0000E4C002240212046FEF76BFD002280218D
:1020F0002046FEF766FD0520FEF70BFC012240217D
:102100002046FEF75EFD012280212046FEF759FDA4
:10211000BDE810400520FEF7FCBB000000040240B3
:1021200070B50024802001F09FFA134D0122802118
:102130002846FEF746FD07E0641CE4B2322C03D9C2
:10214000FFF7CAFF012070BD0520FEF7E2FB8021EA
:102150002846FEF731FD0028EED101224021284615
:10216000FEF72FFD0520FEF7D4FB00224021284674
:10217000FEF727FD002070BD000402402DE9F0416C
:102180001D461646884607460024FFF781FF38465D
:10219000FFF74CFFFFF7C4FF012812D04046FFF7BE
:1021A00045FFFFF7BDFF01280BD0FFF771FF7F1C34
:1021B000F8B2FFF73BFFFFF7B3FF012801D06F1E16
:1021C0000BE00020BDE8F081BC4201D0012000E01E
:1021D0000020FFF7F9FE3055641CAC42F4D3FFF742
:1021E0007BFF0120EEE72DE9F0411D4616468846AB
:1021F00007460024FFF74CFF3846FFF717FFFFF7AD
:102200008FFF012816D04046FFF710FFFFF788FF29
:1022100001280FD007E0305DFFF708FFFFF780FFD0
:10222000012807D0641CAC42F5D3FFF755FF01200D
:10223000BDE8F0810020FBE710B586B014216846A8
:10224000FDF7FCFF1648016841F08001016001685C
:1022500001F080010591016841F001010160016810
:1022600001F001010591016841F00201016000687F
:102270000C4C00F0020005900022C0212046FEF721
:10228000A0FCC020009011200190012002900220AB
:10229000039069462046FEF79FFB06B010BD000084
:1022A000303802400004024010B58CB0242168464A
:1022B000FDF7C4FF0024164809944FF080410A94AA
:1022C000C0E900144FF6FF71C0E9024180210461AA
:1022D00081610320CDE900040120CDE902040A2137
:1022E0000491CDE90540CDE9074169460848FFF76B
:1022F000FFF808B1FEF713FB099409A904480A94F2
:10230000FEF7BCFF002801D0FEF709FB0CB010BDA2
:10231000B000002010B58EB00024079408940994F2
:102320000A940B941C2168460C94FDF787FF2A48F9
:10233000284901605321C0E9011440F2E731C0E9A6
:1023400003148461FEF7D8FF08B1FEF7E8FA4FF4F2
:102350008050079007A92048FFF75CF808B1FEF706
:10236000DEFA1D48FFF70DFB08B1FEF7D8FA0B9413
:102370000BA919480C94FEF781FF08B1FEF7CFFABC
:102380006020CDE9000402940022694612480494BA
:10239000FFF791FA08B1FEF7C2FA042269460E4827
:1023A000FFF789FA08B1FEF7BAFA082269460A4827
:1023B000FFF781FA08B1FEF7B2FA0C226946064827
:1023C000FFF779FA08B1FEF7AAFA0348FFF736FAE1
:1023D0000EB010BD00040040F800002010B586B01B
:1023E0000024174800940194029403940494134920
:1023F000059401605321C0E9011442F20F71C0E954
:1024000003148461FEF778FF08B1FEF788FA4FF4F1
:102410008050009069460A48FEF7FCFF08B1FEF7BD
:102420007EFA049404A906480594FEF727FF0028C5
:1024300001D0FEF774FA06B010BD0000000800409D
:102440004001002010B58CB024216846FDF7F6FE4F
:1024500000241748099415490A94C0E900144FF65E
:10246000FF71C0E902418021046181610320CDE94F
:1024700000040120CDE902040A210491CDE90540C0
:10248000CDE9074169460A48FFF732F808B1FEF77F
:1024900046FA099409A906480A94FEF7EFFE0028B7
:1024A00001D0FEF73CFA0CB010BD0000000C00405B
:1024B000880100200C4810B50A4901604FF4E13151
:1024C0004160002181600C22C160C0E90412816179
:1024D000C161FFF759FC002803D0BDE81040FEF7AA
:1024E0001EBA10BD00100140D0010020FEE7FEE73B
:1024F00070477047FEF770BB03480A21018042F223
:1025000010714180704700004000002030B593B04A
:1025100030216846FDF792FE14210CA8FDF78EFECF
:102520001D480025016841F080510160006800F0FD
:10253000805011901948016821F4404141F4004154
:1025400001600068022400F44040119001200090D6
:10255000000401908001CDE9064019200890A820D0
:10256000CDE9090404200B906846FEF7BBFC08B1D6
:1025700072B6FEE70CA90F2081E831004FF48050BD
:10258000CDE90F0502210CA8FEF7C0FB002801D001
:1025900072B6FEE713B030BD403802400070004014
:1025A0000248016841F470010160704788ED00E065
:1025B0000148FFF7ABB80000B00000200148FFF76A
:1025C000A5B80000400100200148FFF79FB80000B7
:1025D00088010020F0B502681F4B204C204D214E91
:1025E0004FF0804C984207D0604505D0A04203D000
:1025F000A84201D0B04203D122F070074A683A43A2
:10260000984210D060450ED0A0420CD0A8420AD00B
:10261000B04208D0144CA04205D0144CA04202D0C5
:10262000134CA04203D122F44074CA6822434C697F
:1026300022F0800222438C68C4620C688462984253
:1026400001D109690163016841F0040101600121C0
:1026500041610260F0BD0000000001400004004044
:1026600000080040000C00400040014000440140D0
:102670000048014010B501F01F030121046A994090
:102680008C430462016A9A401143016210BD10B587
:10269000846842EA032224F47F440A43224382608E
:1026A00010BD826822F070020A4342F00701816087
:1026B0007047000030B5036A026A22F0010202622C
:1026C0004268846924F073050C682C4323F00205EA
:1026D0008B682B430A4DA8420BD123F00805CB6829
:1026E00022F440722B434D6923F0040315438A6999
:1026F0002A434260846149684163036230BD00003F
:102700000000014030B5026A036A23F0100303623F
:10271000436884690D6824F4E64444EA05248D681E
:1027200022F0200242EA05120B4DA8420ED1CD68DC
:1027300022F0800242EA05124D6923F4406343EA25
:1027400085038D6922F0400243EA8503436084617A
:1027500049688163026230BD0000014030B5036A00
:10276000026A22F4807202624268C46923F4007330
:1027700024F073050C682C438D6843EA05230C4D47
:10278000A8420ED1CD6823F4006343EA05234D69C6
:1027900022F4405242EA05128D6923F4806342EA32
:1027A00005124260C4614968C163036230BD000024
:1027B0000000014030B5046A026A22F480520262CD
:1027C0004268C3690D6823F4E64343EA05238D6834
:1027D00024F4005444EA0534064DA84204D14D695E
:1027E00022F4804242EA85124260C3614968016472
:1027F000046230BD0000014010B5036A046A24F091
:1028000001040462846924F0F00444EA021423F011
:102810000A020A438461026210BD10B5036A046AA9
:1028200024F010040462846923F0A00324F47044AB
:1028300044EA023243EA01118261016210BD10B51F
:10284000806B0021C185FFF75DF910BD01680C3177
:1028500051E8002F22F4907241E80023002BF5D1BB
:102860000168143151E8002F22F0010241E80023F1
:10287000002BF5D1016B012909D101680C3151E818
:10288000002F22F0100241E80023002BF5D1202177
:1028900080F8421000210163704708B590F842109B
:1028A000222901D0022008BD82684FF480539A4249
:1028B00001D1016921B1816A9A421BD04AB10AE073
:1028C0000268816A5268C2F308020A80816A891C20
:1028D00008E0026972B10268526802F07F020A7071
:1028E000816A491C8162C18D491E0904090CC18598
:1028F00003D01BE002685268F1E70168CA6822F061
:102900002002CA600168CA6822F48072CA60016845
:102910004A6922F001024A61202180F84210002118
:102920004163026B012A03D0FFF79EFA002008BD25
:10293000016301680C3151E8002F22F0100241E8D8
:102940000023002BF5D101680A68D20602D50A6877
:1029500049680091818DFFF7D4F8E7E770B5044628
:1029600000680169E26821F4405111430161216965
:10297000A068E26908436169114308432168CA6895
:1029800049F20C639A430243CA6020684169A26914
:1029900021F440711143416131492068884202D0DD
:1029A0003049884202D1FEF75BFA01E0FEF748FAAF
:1029B000E2690023192164253226B2F5004F6268CE
:1029C00028D0A0FB0101930F9200FDF7FFFB014609
:1029D000B0FBF5F06FF01802504301EB800006EBFE
:1029E0000010B0FBF5F000F0F002B1FBF5F002EBE7
:1029F0000012B1FBF5F06FF01803584301EB8000B3
:102A000006EB0010B0FBF5F000F00F002168104459
:102A1000886070BDA0FB010192185B41FDF7D6FBF9
:102A20000146B0FBF5F00201B1FBF5F06FF01803C1
:102A3000584301EB800006EBC000B0FBF5F000F05E
:102A4000F80002EB4002B1FBF5F0584301EB8000C7
:102A500006EBC000B0FBF5F000F00700D6E7000081
:102A600000100140001401402DE9F8439846174634
:102A70000D460446089E24E0701C22D0FEF7A6F8FE
:102A8000A0EB0800B0421AD8CEB12068C16849074F
:102A900017D5802D15D0402D13D00168C9430907E3
:102AA0000FD401680025406800902046FFF7CEFE55
:102AB0000820606484F840500120BDE8F8830320BA
:102AC000FBE72068006835EA000004D00020B84227
:102AD000D2D00020F1E70120F9E700000148FFF71C
:102AE00013B80000D0010020FEE7000018B1034930
:102AF0008861002070476FF0050070474400002097
:102B00006FF0050228B121B1034AC2E90201002099
:102B1000704710467047000044000020032802D987
:102B20006FF005007047034A106211700020D061F9
:102B300070470000440000202DE9FC5F0D4606466A
:102B400028446FF0050C90287CD2494C6FF00409A2
:102B50002046D4F8208042684FF0FF0A4FF0AA0BBD
:102B60004FF0270EF7B2C6F30721B8F1000F0FD0D0
:102B70004FF6FF7000EA45032046B8F1010F0078D8
:102B800016D0B8F1020F33D0B8F1030F6ED142E086
:102B9000042D6BD8F2B38DF800A08DF801B08DF83C
:102BA00002E08DF804108DF803700521684659E0A5
:102BB00082B35B1DB3F5807F32D88DF8000003200F
:102BC0008DF80100280A8DF802108DF804008DF8A8
:102BD00003708DF805500621684600F067F8010A79
:102BE0008DF806108DF8070008216846626839E004
:102BF000032D3BD823696BB18DF800A08DF801B08F
:102C00008DF802E08DF804108DF8037005226946F6
:102C1000984728E017E0E768AFB1B3F5807F03D9A4
:102C20006FF00300BDE8FC9F4006F1B2000E114AB0
:102C3000B847012817D162692AB10E49002001F571
:102C400080730BE012E04846ECE700BF31F81070EB
:102C500000EB060C401C23F81C7080B2A842F5D390
:102C600029463046904700206662DBE76046D9E798
:102C7000440000207002002018B103494861002080
:102C800070476FF005007047440000200FB4054BFB
:102C900010B503A9044A029800F000F910BC5DF8D1
:102CA00014FB0000013600086C000020F0B5FF2383
:102CB000084E1C46002206F5807705E0855C5D40E5
:102CC000735D63407C5D521C8A42F7DB44EA03205B
:102CD000F0BD0000203A00080907090E002804DBB7
:102CE00000F1E02080F80014704700F00F0000F1C0
:102CF000E02080F8141D704702E008C8121F08C1C8
:102D0000002AFAD170477047002001E001C1121F6C
:102D1000002AFBD1704700002DE9FF5F82B000213F
:102D2000DDE90430020DDDF840B0034318D044F66D
:102D30001050A2F2FF3242431514119801281FD0FF
:102D4000A5EB0B00401C5FEA000A4FF000064E4F57
:102D5000DFF83891B046504615D5CAF1000413E0AB
:102D6000119801244AA3012801D16FEA0B010298AE
:102D7000119AC0E90031C0E9024206B0BDE8F09FF7
:102D8000CBF10000DFE704460021404A491842EB3E
:102D90000450CDE9001012E0E00707D032463B4670
:102DA00040464946FDF7FCFA8046894632463B4696
:102DB00010461946FDF7F4FA06460F466410002C3B
:102DC000EAD1DDE90401DDE90023BAF1000F06DAFA
:102DD000FDF7E6FA42464B46FDF7E2FA05E0FDF75D
:102DE00051FB42464B46FDF74DFB04460E46002282
:102DF000284BFDF7E9FC03D84FF0FF30014607E010
:102E00000022254B20463146FDF723FAFDF7C4FC8E
:102E1000102409E0002C0ADB0A220023FDF7D6F972
:102E2000039B30321A55641E50EA0102F2D1641C31
:102E3000039AC4F111031444119A012A03D0012208
:102E400008430DD10AE0084304D000204FF0110BD5
:102E5000119072E7A3EB0B056D1E0DE05B4504DDE1
:102E60004FF0000205F1010504E003DA4FF0000223
:102E7000A5F10105002AECD002981199C0E90231B0
:102E8000C0E9004579E70000000014400000F03F71
:102E9000300000000000F0430000E03F2DE9FF4F4C
:102EA00095B09B468946064600250FE2252877D136
:102EB00000242746F84A0121059400E0044316F84F
:102EC000013F203B01FA03F01042F7D130782A2865
:102ED00011D06FF02F033078A0F13002092A16D8F4
:102EE000059A44F0020402EB820203EB4202104412
:102EF000761C0590EFE759F8042B0592002A03DAB7
:102F0000504244F40054059044F00204761C30789A
:102F10002E2816D116F8010F44F004042A280DD0EB
:102F20006FF02F023078A0F13003092B09D807EB9E
:102F3000870302EB4303C718761CF3E759F8047BB9
:102F4000761C30786C280FD006DC4C2817D0682807
:102F50000DD06A2814D104E0742810D07A280FD13B
:102F60000DE044F400140AE044F4801401E044F459
:102F700040147278824202D104F58014761C761CCB
:102F8000307866280BD013DC582877D009DC00286D
:102F900075D04528F6D04628F4D047281AD19DE1AF
:102FA00018E0632835D0642879D0652812D195E1DE
:102FB000702873D008DC6728F1D069286FD06E289C
:102FC0000DD06F2806D1B5E073282CD0752875D0A8
:102FD000782874D05A46179990476D1C75E1C4F350
:102FE0000250022809D003280DD0D9F80010042877
:102FF0000DD00D6009F1040967E1D9F80010EA1756
:10300000C1E90052F6E7D9F800100D80F2E70D7023
:10301000F0E719F8041B8DF8001000208DF801006E
:10302000EA46012003E059F804AB4FF0FF30610796
:103030004FF0000102D40DE008F101018846B942C9
:103040000FDA8045F8DB1AF808100029F4D108E0FF
:1030500008F1010188468142FADB1AF808100029BC
:10306000F6D105985B46A0EB080721463846179A2B
:1030700000F094FA284400EB080507E04DE029E150
:103080000DE01AF8010B5A4617999047B8F101085C
:10309000F7D25B4621463846179A13E142E00A22EE
:1030A0000092C4F302524FF0000A022A08D059F8E5
:1030B00004CB032A4FEAEC710AD00DE029E02AE0A4
:1030C00009F1070121F00702F2E802C1914609E087
:1030D0000FFA8CFC4FEAEC71042A03D14FFA8CFCF6
:1030E0004FEAEC71002907DA0A460021DCF1000CF6
:1030F00061EB02012D2202E0220504D52B228DF87E
:103100000420012203E0E20701D02022F7E79046E5
:1031100059E00A2102E010220DE010214FF0000AD0
:1031200000910BE010224FF0000A44F0040408273D
:10313000009203E008224FF0000A0092C4F302520A
:10314000022A05D059F804CB0021032A08D009E04F
:1031500009F1070121F00702F2E802C1914605E0FA
:103160001FFA8CFC042A01D10CF0FF0C4FF0000870
:10317000220728D5702806D0009B83F0100353EA5D
:103180000A0305D00EE040228DF80420012208E059
:103190005CEA010206D030228DF804208DF805008B
:1031A00002229046009B83F0080353EA0A030AD1E7
:1031B0005CEA010201D1620705D530228DF80420B6
:1031C0004FF001087F1E582804D034A003900EA8A9
:1031D00002900DE036A0F9E753466046009AFCF7EE
:1031E000F5FF84460398825C0298401E02900270AC
:1031F0005CEA0100F0D1029806A9081A00F1200A41
:10320000600702D524F4803400E00127574502DD31
:10321000A7EB0A0000E0002000EB0A0100900598EF
:103220004144401A0590E00306D45B462146179AB4
:10323000059800F0B3F90544002706E001A85A46B6
:10324000C05D179990476D1C7F1C4745F6DBE00376
:103250000CD55B462146179A059800F09FF9054466
:1032600004E030205A46179990476D1C0099481E7B
:1032700000900029F5DC08E0029802995A4600788F
:10328000491C0291179990476D1CBAF10001AAF1EF
:10329000010AF1DC65E10000092801003031323318
:1032A0003435363738396162636465660000000082
:1032B000303132333435363738394142434445466C
:1032C0000000000000F058F90544761C3078002812
:1032D0007FF4ECAD19B02846BDE8F08F620700D44A
:1032E000062709F1070222F0070CFCE80223E14659
:1032F00003F000485FEA080C02D00FF2702C0DE0DA
:103300005FEA045C02D50FF2682C07E05FEAC47C38
:1033100002D00FF2602C01E0AFF2700C4FF0FF38DA
:1033200023F00043CDF850C065280CD006DC4528BA
:1033300009D046281DD047283DD13DE0662818D049
:1033400067287ED138E00021112F01DB112000E039
:10335000781CCDE9000106A90EA8FFF7DDFCDDE928
:103360000F010E9A03910021009207F1010A0491C6
:103370004DE04FF000400097CDE9011006A90EA8DE
:10338000FFF7CAFCDDE90F0203920E9B11990022A0
:10339000DDF80CA00093049211B9791C00EB010A2E
:1033A000B7EB0A0004D4C0F1FF3007F1010A049022
:1033B000AAEB0700019044E0012F00DA0127002169
:1033C000112F01DD112000E03846CDE9000106A9EA
:1033D0000EA8FFF7A1FCDDE90F010E9A0391002171
:1033E00004910092BA4621070CD40399514500DAA2
:1033F0008A46BAF1010F05DD009AAAF10101515C7C
:10340000302908D0B84202DA10F1040F06DA01219F
:10341000CDE9011015E0AAF10101E9E7002805DC7A
:10342000049901440491AAEB000102E0411C5145BA
:1034300000DD8A460499401A401C01904FF000407C
:103440000290200704D40198504501DBCDF8048098
:1034500000208DF84F0002980DF14F07B0F1004F9A
:1034600025D02B200E9002984FF0020800280CDA8D
:10347000404202902D200E9007E00A210298FDF7AD
:10348000B0F83031029007F8011DB8F10001A8F141
:103490000108F2DC02980028EFD1791E0E9808701E
:1034A000307800F0200040F0450007F8020D12A827
:1034B000C01B00F107081498007800B1012000EB50
:1034C0000A01019801EBE07105984144401A401E41
:1034D0000590E00306D45B462146179A059800F054
:1034E0005DF805441498007818B15A46179990472A
:1034F0006D1CE00324D55B462146179A059800F021
:103500004DF805441CE00498002807DBDDE90301C1
:10351000884203DD0098405C179901E0179930203C
:103520005A469047049805F10105401C0490019803
:10353000401E019004D12E205A46179990476D1CC9
:10354000BAF10001AAF1010ADDDC05E017F8010B70
:103550005A46179990476D1CB8F10001A8F101086F
:10356000F4DC5B462146179A0598ABE62D00000077
:103570002B000000200000002DE9F041044600254A
:103580001E461746880404D405E039462020B0477B
:103590006D1C641EF9D52846BDE8F0812DE9F04187
:1035A000044600251E469046C80301D5302700E09A
:1035B0002027880404D505E041463846B0476D1CF5
:1035C000641EF9D52846BDE8F08100000B49498802
:1035D00048434FF0E021486100228A61086940F0C9
:1035E000010008610869C30701D0C003FAD5086962
:1035F00020F0010008618A6170470000400000204F
:1036000013B54FF6FF73012269460248FEF72DFC01
:1036100000981CBDD001002004480068406A04499D
:1036200080B2496800EB01404042704788010020A9
:103630002800002000B5FFF7EFFF0A4AD168D060EC
:10364000411A41F270704143C81701EB907080102D
:103650004FF4BB7190FBF1F000EE100AB8EEC00A17
:1036600000BD00002800002000B585B0694600902C
:103670000020019001200290022003900248FDF7F3
:10368000ABF905B000BD00000004024000B585B0F4
:1036900069460090012001900290022003900248A8
:1036A000FDF79AF905B000BD000402402DED048B32
:1036B00088B0FDF799FAFEF729FFFEF7BDFDFEF78A
:1036C000F3FDFEF7BFFEFEF725FEFEF787FEFEF7D1
:1036D000F1FE00216748FEF783F904216548FEF7F3
:1036E0007FF908216348FEF77BF90C216148FEF75A
:1036F00077F961486FF00104006804613C215E487D
:10370000FDF7BCFF5C48FDF74FFE5C4800680461B4
:103710003C215A48FDF7B2FF5848FDF745FE58488E
:10372000FDF742FE00F0D8F8FEF7E6FEFEF714FCC7
:1037300050210320FFF7F2F952495348FFF7E0F90F
:103740005248FFF799FA5248FFF7D0F9FDF766F8AB
:10375000DFF840A10C213420FFF7EEF90A20FFF733
:1037600035FF9AF8001050460029F3D04A4B00224A
:103770009FED4A0ADFED4A0A4A4900BF03EB4204C3
:10378000B4F97A4001EE104A01EB8204521CB8EE03
:10379000C11A032A21EE001A21EE201A84ED001A24
:1037A000ECDB02785207D5D50A68826093464A68F6
:1037B000C26091ED028A904680ED048A90ED050A80
:1037C000394A38EE400A10EE101A914202D341688D
:1037D000491C416010EE101A344A914202DB4168E4
:1037E000491E4160B0EE480A8AED050A10EE100A43
:1037F000FCF7C8FE41EC190BDAF804000090FCF766
:10380000B0FE9FED2B1B53EC112BFCF7C9FD53ECC5
:10381000192BFCF71EFDFCF7C8FE0646CAF810007F
:1038200018EE100AFCF7AEFE04460D463046FCF7D3
:10383000A9FE06460F464046FCF7A4FE8046894690
:103840005846FCF79FFE41EC100B0098CDF8008025
:10385000CDE90550CDE90374CDE9019653EC102B69
:1038600015A0FFF713FA9AF8000020F004018AF877
:1038700000106FE7F8000020B00000208801002051
:10388000400100207D210008E7210008C50800084C
:103890001B09000800000020700300200000003811
:1038A00000003443A40000200000AFC30000AF4379
:1038B0000000000000807640616E676C653A20254C
:1038C0002E33662C252E33662C252E33662C252E82
:1038D00033662C25640D0A001C48BBEE0E0ADFED92
:1038E0001D0A80ED000A9FED1A0A80ED010A80EDA5
:1038F000020A80ED060A80ED070A80ED080AC0ED95
:10390000030ADFED150AC0ED040A80ED050ADFEDBC
:10391000130A80ED090AC0ED0A0ADFED110A2C3006
:10392000C0ED000A80ED010A80ED020A80ED060A72
:1039300080ED070A80ED080AF7EE000AC0ED030AE1
:1039400080ED040A80ED050A70470000180200208F
:10395000000000009A99993F9A99193ECDCC4C3FAE
:103960000098644690ED0A1AD0ED090AF7EE001AA5
:10397000B0EE002A61EE200A31EEC11A1E4A41EE75
:10398000000AC0ED090A90ED000A70EE600AC0ED71
:10399000060A90ED071AD0ED031A30EEC10A20EEA8
:1039A000210AD0ED041A01EEA00AF0EE601A41EEF1
:1039B000421A90ED082A71EE821A90ED052A02EE65
:1039C000210AD0ED011A30EE210A10EE101A80ED16
:1039D000010A80ED081AC0ED070A914202DD9FED51
:1039E000070A06E010EE101A054A914203D99FED2E
:1039F000050A80ED010A70470000CC420000CC426D
:103A00000000CCC20000CCC200000000000000009A
:103A10000102030406070809000000000102030474
:103A200000C1814001C0804101C0804100C181408E
:103A300001C0804100C1814000C1814001C080417E
:103A400001C0804100C1814000C1814001C080416E
:103A500000C1814001C0804101C0804100C181405E
:103A600001C0804100C1814000C1814001C080414E
:103A700000C1814001C0804101C0804100C181403E
:103A800000C1814001C0804101C0804100C181402E
:103A900001C0804100C1814000C1814001C080411E
:103AA00001C0804100C1814000C1814001C080410E
:103AB00000C1814001C0804101C0804100C18140FE
:103AC00000C1814001C0804101C0804100C18140EE
:103AD00001C0804100C1814000C1814001C08041DE
:103AE00000C1814001C0804101C0804100C18140CE
:103AF00001C0804100C1814000C1814001C08041BE
:103B000001C0804100C1814000C1814001C08041AD
:103B100000C1814001C0804101C0804100C181409D
:103B200000C0C101C30302C2C60607C705C5C4045D
:103B3000CC0C0DCD0FCFCE0E0ACACB0BC90908C8CD
:103B4000D81819D91BDBDA1A1EDEDF1FDD1D1CDCBD
:103B500014D4D515D71716D6D21213D311D1D0102D
:103B6000F03031F133F3F23236F6F737F53534F41D
:103B70003CFCFD3DFF3F3EFEFA3A3BFB39F9F8388D
:103B800028E8E929EB2B2AEAEE2E2FEF2DEDEC2C7D
:103B9000E42425E527E7E62622E2E323E12120E0ED
:103BA000A06061A163A3A26266A6A767A56564A4DD
:103BB0006CACAD6DAF6F6EAEAA6A6BAB69A9A8684D
:103BC00078B8B979BB7B7ABABE7E7FBF7DBDBC7C3D
:103BD000B47475B577B7B67672B2B373B17170B0AD
:103BE000509091519353529296565797559594549D
:103BF0009C5C5D9D5F9F9E5E5A9A9B5B995958980D
:103C0000884849894B8B8A4A4E8E8F4F8D4D4C8CFC
:103C1000448485458747468682424383418180406C
:103C2000403C00080000002070000000F82C000854
:103C3000B03C00087000002020080000082D00089B
:103C400000FF000000000000000000000000000075
:103C50000000000000000000010000001000000053
:103C6000000000000024F40000000000000000003C
:103C70000000000000000000000000000000000044
:103C800000000000FF000000000000000000000035
:103C90000000000000000000000000000000000024
:103CA0000000000000000000000000000000000014
:040000050800019559
:00000001FF
